{
	"voting contract/voting.sol": {
		"voting": {
			"abi": [
				{
					"inputs": [],
					"name": "get",
					"outputs": [
						{
							"internalType": "address",
							"name": "",
							"type": "address"
						}
					],
					"stateMutability": "view",
					"type": "function"
				},
				{
					"inputs": [],
					"name": "hlo",
					"outputs": [],
					"stateMutability": "nonpayable",
					"type": "function"
				}
			],
			"devdoc": {
				"kind": "dev",
				"methods": {},
				"version": 1
			},
			"evm": {
				"assembly": "    /* \"voting contract/voting.sol\":60:400  contract voting{\r... */\n  mstore(0x40, 0x80)\n  callvalue\n  dup1\n  iszero\n  tag_1\n  jumpi\n  0x00\n  dup1\n  revert\ntag_1:\n  pop\n  dataSize(sub_0)\n  dup1\n  dataOffset(sub_0)\n  0x00\n  codecopy\n  0x00\n  return\nstop\n\nsub_0: assembly {\n        /* \"voting contract/voting.sol\":60:400  contract voting{\r... */\n      mstore(0x40, 0x80)\n      callvalue\n      dup1\n      iszero\n      tag_1\n      jumpi\n      0x00\n      dup1\n      revert\n    tag_1:\n      pop\n      jumpi(tag_2, lt(calldatasize, 0x04))\n      shr(0xe0, calldataload(0x00))\n      dup1\n      0x6d4ce63c\n      eq\n      tag_3\n      jumpi\n      dup1\n      0xf7a58a4b\n      eq\n      tag_4\n      jumpi\n    tag_2:\n      0x00\n      dup1\n      revert\n        /* \"voting contract/voting.sol\":305:397  function get() public view returns(address) {\r... */\n    tag_3:\n      tag_5\n      tag_6\n      jump\t// in\n    tag_5:\n      mload(0x40)\n      tag_7\n      swap2\n      swap1\n      tag_8\n      jump\t// in\n    tag_7:\n      mload(0x40)\n      dup1\n      swap2\n      sub\n      swap1\n      return\n        /* \"voting contract/voting.sol\":126:299  function hlo() public {\r... */\n    tag_4:\n      tag_9\n      tag_10\n      jump\t// in\n    tag_9:\n      stop\n        /* \"voting contract/voting.sol\":305:397  function get() public view returns(address) {\r... */\n    tag_6:\n        /* \"voting contract/voting.sol\":340:347  address */\n      0x00\n        /* \"voting contract/voting.sol\":367:378  participant */\n      dup1\n        /* \"voting contract/voting.sol\":367:389  participant[\"narendr\"] */\n      mload(0x40)\n      tag_12\n      swap1\n      tag_13\n      jump\t// in\n    tag_12:\n      swap1\n      dup2\n      mstore\n      0x20\n      add\n      mload(0x40)\n      dup1\n      swap2\n      sub\n      swap1\n      keccak256\n      0x00\n      swap1\n      sload\n      swap1\n      0x0100\n      exp\n      swap1\n      div\n      0xffffffffffffffffffffffffffffffffffffffff\n      and\n        /* \"voting contract/voting.sol\":360:389  return participant[\"narendr\"] */\n      swap1\n      pop\n        /* \"voting contract/voting.sol\":305:397  function get() public view returns(address) {\r... */\n      swap1\n      jump\t// out\n        /* \"voting contract/voting.sol\":126:299  function hlo() public {\r... */\n    tag_10:\n        /* \"voting contract/voting.sol\":179:221  0x17F6AD8Ef982297579C203069C1DbfFE4348c372 */\n      0x17f6ad8ef982297579c203069c1dbffe4348c372\n        /* \"voting contract/voting.sol\":155:166  participant */\n      0x00\n        /* \"voting contract/voting.sol\":155:177  participant[\"narendr\"] */\n      mload(0x40)\n      tag_15\n      swap1\n      tag_13\n      jump\t// in\n    tag_15:\n      swap1\n      dup2\n      mstore\n      0x20\n      add\n      mload(0x40)\n      dup1\n      swap2\n      sub\n      swap1\n      keccak256\n      0x00\n        /* \"voting contract/voting.sol\":155:221  participant[\"narendr\"]= 0x17F6AD8Ef982297579C203069C1DbfFE4348c372 */\n      0x0100\n      exp\n      dup2\n      sload\n      dup2\n      0xffffffffffffffffffffffffffffffffffffffff\n      mul\n      not\n      and\n      swap1\n      dup4\n      0xffffffffffffffffffffffffffffffffffffffff\n      and\n      mul\n      or\n      swap1\n      sstore\n      pop\n        /* \"voting contract/voting.sol\":251:293  0x1aE0EA34a72D944a8C7603FfB3eC30a6669E454C */\n      0x1ae0ea34a72d944a8c7603ffb3ec30a6669e454c\n        /* \"voting contract/voting.sol\":228:239  participant */\n      0x00\n        /* \"voting contract/voting.sol\":228:248  participant[\"rahul\"] */\n      mload(0x40)\n      tag_16\n      swap1\n      tag_17\n      jump\t// in\n    tag_16:\n      swap1\n      dup2\n      mstore\n      0x20\n      add\n      mload(0x40)\n      dup1\n      swap2\n      sub\n      swap1\n      keccak256\n      0x00\n        /* \"voting contract/voting.sol\":228:293  participant[\"rahul\"] = 0x1aE0EA34a72D944a8C7603FfB3eC30a6669E454C */\n      0x0100\n      exp\n      dup2\n      sload\n      dup2\n      0xffffffffffffffffffffffffffffffffffffffff\n      mul\n      not\n      and\n      swap1\n      dup4\n      0xffffffffffffffffffffffffffffffffffffffff\n      and\n      mul\n      or\n      swap1\n      sstore\n      pop\n        /* \"voting contract/voting.sol\":126:299  function hlo() public {\r... */\n      jump\t// out\n        /* \"#utility.yul\":7:125   */\n    tag_19:\n        /* \"#utility.yul\":94:118   */\n      tag_21\n        /* \"#utility.yul\":112:117   */\n      dup2\n        /* \"#utility.yul\":94:118   */\n      tag_22\n      jump\t// in\n    tag_21:\n        /* \"#utility.yul\":89:92   */\n      dup3\n        /* \"#utility.yul\":82:119   */\n      mstore\n        /* \"#utility.yul\":7:125   */\n      pop\n      pop\n      jump\t// out\n        /* \"#utility.yul\":131:531   */\n    tag_23:\n        /* \"#utility.yul\":291:294   */\n      0x00\n        /* \"#utility.yul\":312:396   */\n      tag_25\n        /* \"#utility.yul\":394:395   */\n      0x07\n        /* \"#utility.yul\":389:392   */\n      dup4\n        /* \"#utility.yul\":312:396   */\n      tag_26\n      jump\t// in\n    tag_25:\n        /* \"#utility.yul\":305:396   */\n      swap2\n      pop\n        /* \"#utility.yul\":405:498   */\n      tag_27\n        /* \"#utility.yul\":494:497   */\n      dup3\n        /* \"#utility.yul\":405:498   */\n      tag_28\n      jump\t// in\n    tag_27:\n        /* \"#utility.yul\":523:524   */\n      0x07\n        /* \"#utility.yul\":518:521   */\n      dup3\n        /* \"#utility.yul\":514:525   */\n      add\n        /* \"#utility.yul\":507:525   */\n      swap1\n      pop\n        /* \"#utility.yul\":131:531   */\n      swap2\n      swap1\n      pop\n      jump\t// out\n        /* \"#utility.yul\":537:937   */\n    tag_29:\n        /* \"#utility.yul\":697:700   */\n      0x00\n        /* \"#utility.yul\":718:802   */\n      tag_31\n        /* \"#utility.yul\":800:801   */\n      0x05\n        /* \"#utility.yul\":795:798   */\n      dup4\n        /* \"#utility.yul\":718:802   */\n      tag_26\n      jump\t// in\n    tag_31:\n        /* \"#utility.yul\":711:802   */\n      swap2\n      pop\n        /* \"#utility.yul\":811:904   */\n      tag_32\n        /* \"#utility.yul\":900:903   */\n      dup3\n        /* \"#utility.yul\":811:904   */\n      tag_33\n      jump\t// in\n    tag_32:\n        /* \"#utility.yul\":929:930   */\n      0x05\n        /* \"#utility.yul\":924:927   */\n      dup3\n        /* \"#utility.yul\":920:931   */\n      add\n        /* \"#utility.yul\":913:931   */\n      swap1\n      pop\n        /* \"#utility.yul\":537:937   */\n      swap2\n      swap1\n      pop\n      jump\t// out\n        /* \"#utility.yul\":943:1324   */\n    tag_13:\n        /* \"#utility.yul\":1128:1131   */\n      0x00\n        /* \"#utility.yul\":1150:1298   */\n      tag_35\n        /* \"#utility.yul\":1294:1297   */\n      dup3\n        /* \"#utility.yul\":1150:1298   */\n      tag_23\n      jump\t// in\n    tag_35:\n        /* \"#utility.yul\":1143:1298   */\n      swap2\n      pop\n        /* \"#utility.yul\":1315:1318   */\n      dup2\n        /* \"#utility.yul\":1308:1318   */\n      swap1\n      pop\n        /* \"#utility.yul\":943:1324   */\n      swap2\n      swap1\n      pop\n      jump\t// out\n        /* \"#utility.yul\":1330:1711   */\n    tag_17:\n        /* \"#utility.yul\":1515:1518   */\n      0x00\n        /* \"#utility.yul\":1537:1685   */\n      tag_37\n        /* \"#utility.yul\":1681:1684   */\n      dup3\n        /* \"#utility.yul\":1537:1685   */\n      tag_29\n      jump\t// in\n    tag_37:\n        /* \"#utility.yul\":1530:1685   */\n      swap2\n      pop\n        /* \"#utility.yul\":1702:1705   */\n      dup2\n        /* \"#utility.yul\":1695:1705   */\n      swap1\n      pop\n        /* \"#utility.yul\":1330:1711   */\n      swap2\n      swap1\n      pop\n      jump\t// out\n        /* \"#utility.yul\":1717:1939   */\n    tag_8:\n        /* \"#utility.yul\":1810:1814   */\n      0x00\n        /* \"#utility.yul\":1848:1850   */\n      0x20\n        /* \"#utility.yul\":1837:1846   */\n      dup3\n        /* \"#utility.yul\":1833:1851   */\n      add\n        /* \"#utility.yul\":1825:1851   */\n      swap1\n      pop\n        /* \"#utility.yul\":1861:1932   */\n      tag_39\n        /* \"#utility.yul\":1929:1930   */\n      0x00\n        /* \"#utility.yul\":1918:1927   */\n      dup4\n        /* \"#utility.yul\":1914:1931   */\n      add\n        /* \"#utility.yul\":1905:1911   */\n      dup5\n        /* \"#utility.yul\":1861:1932   */\n      tag_19\n      jump\t// in\n    tag_39:\n        /* \"#utility.yul\":1717:1939   */\n      swap3\n      swap2\n      pop\n      pop\n      jump\t// out\n        /* \"#utility.yul\":1945:2093   */\n    tag_26:\n        /* \"#utility.yul\":2047:2058   */\n      0x00\n        /* \"#utility.yul\":2084:2087   */\n      dup2\n        /* \"#utility.yul\":2069:2087   */\n      swap1\n      pop\n        /* \"#utility.yul\":1945:2093   */\n      swap3\n      swap2\n      pop\n      pop\n      jump\t// out\n        /* \"#utility.yul\":2099:2195   */\n    tag_22:\n        /* \"#utility.yul\":2136:2143   */\n      0x00\n        /* \"#utility.yul\":2165:2189   */\n      tag_42\n        /* \"#utility.yul\":2183:2188   */\n      dup3\n        /* \"#utility.yul\":2165:2189   */\n      tag_43\n      jump\t// in\n    tag_42:\n        /* \"#utility.yul\":2154:2189   */\n      swap1\n      pop\n        /* \"#utility.yul\":2099:2195   */\n      swap2\n      swap1\n      pop\n      jump\t// out\n        /* \"#utility.yul\":2201:2327   */\n    tag_43:\n        /* \"#utility.yul\":2238:2245   */\n      0x00\n        /* \"#utility.yul\":2278:2320   */\n      0xffffffffffffffffffffffffffffffffffffffff\n        /* \"#utility.yul\":2271:2276   */\n      dup3\n        /* \"#utility.yul\":2267:2321   */\n      and\n        /* \"#utility.yul\":2256:2321   */\n      swap1\n      pop\n        /* \"#utility.yul\":2201:2327   */\n      swap2\n      swap1\n      pop\n      jump\t// out\n        /* \"#utility.yul\":2333:2490   */\n    tag_28:\n        /* \"#utility.yul\":2473:2482   */\n      0x6e6172656e647200000000000000000000000000000000000000000000000000\n        /* \"#utility.yul\":2469:2470   */\n      0x00\n        /* \"#utility.yul\":2461:2467   */\n      dup3\n        /* \"#utility.yul\":2457:2471   */\n      add\n        /* \"#utility.yul\":2450:2483   */\n      mstore\n        /* \"#utility.yul\":2333:2490   */\n      pop\n      jump\t// out\n        /* \"#utility.yul\":2496:2651   */\n    tag_33:\n        /* \"#utility.yul\":2636:2643   */\n      0x726168756c000000000000000000000000000000000000000000000000000000\n        /* \"#utility.yul\":2632:2633   */\n      0x00\n        /* \"#utility.yul\":2624:2630   */\n      dup3\n        /* \"#utility.yul\":2620:2634   */\n      add\n        /* \"#utility.yul\":2613:2644   */\n      mstore\n        /* \"#utility.yul\":2496:2651   */\n      pop\n      jump\t// out\n\n    auxdata: 0xa2646970667358221220e8e78c87dfe9e9ac7d6448610e8765f5c932100a5ae67703e6d1f8019287d33c64736f6c63430008070033\n}\n",
				"bytecode": {
					"linkReferences": {},
					"object": "608060405234801561001057600080fd5b506102e5806100206000396000f3fe608060405234801561001057600080fd5b50600436106100365760003560e01c80636d4ce63c1461003b578063f7a58a4b14610059575b600080fd5b610043610063565b6040516100509190610205565b60405180910390f35b6100616100a6565b005b600080604051610072906101db565b908152602001604051809103902060009054906101000a900473ffffffffffffffffffffffffffffffffffffffff16905090565b7317f6ad8ef982297579c203069c1dbffe4348c37260006040516100c9906101db565b908152602001604051809103902060006101000a81548173ffffffffffffffffffffffffffffffffffffffff021916908373ffffffffffffffffffffffffffffffffffffffff160217905550731ae0ea34a72d944a8c7603ffb3ec30a6669e454c6000604051610138906101f0565b908152602001604051809103902060006101000a81548173ffffffffffffffffffffffffffffffffffffffff021916908373ffffffffffffffffffffffffffffffffffffffff160217905550565b61018f8161022b565b82525050565b60006101a2600783610220565b91506101ad8261025d565b600782019050919050565b60006101c5600583610220565b91506101d082610286565b600582019050919050565b60006101e682610195565b9150819050919050565b60006101fb826101b8565b9150819050919050565b600060208201905061021a6000830184610186565b92915050565b600081905092915050565b60006102368261023d565b9050919050565b600073ffffffffffffffffffffffffffffffffffffffff82169050919050565b7f6e6172656e647200000000000000000000000000000000000000000000000000600082015250565b7f726168756c00000000000000000000000000000000000000000000000000000060008201525056fea2646970667358221220e8e78c87dfe9e9ac7d6448610e8765f5c932100a5ae67703e6d1f8019287d33c64736f6c63430008070033",
					"opcodes": "PUSH1 0x80 PUSH1 0x40 MSTORE CALLVALUE DUP1 ISZERO PUSH2 0x10 JUMPI PUSH1 0x0 DUP1 REVERT JUMPDEST POP PUSH2 0x2E5 DUP1 PUSH2 0x20 PUSH1 0x0 CODECOPY PUSH1 0x0 RETURN INVALID PUSH1 0x80 PUSH1 0x40 MSTORE CALLVALUE DUP1 ISZERO PUSH2 0x10 JUMPI PUSH1 0x0 DUP1 REVERT JUMPDEST POP PUSH1 0x4 CALLDATASIZE LT PUSH2 0x36 JUMPI PUSH1 0x0 CALLDATALOAD PUSH1 0xE0 SHR DUP1 PUSH4 0x6D4CE63C EQ PUSH2 0x3B JUMPI DUP1 PUSH4 0xF7A58A4B EQ PUSH2 0x59 JUMPI JUMPDEST PUSH1 0x0 DUP1 REVERT JUMPDEST PUSH2 0x43 PUSH2 0x63 JUMP JUMPDEST PUSH1 0x40 MLOAD PUSH2 0x50 SWAP2 SWAP1 PUSH2 0x205 JUMP JUMPDEST PUSH1 0x40 MLOAD DUP1 SWAP2 SUB SWAP1 RETURN JUMPDEST PUSH2 0x61 PUSH2 0xA6 JUMP JUMPDEST STOP JUMPDEST PUSH1 0x0 DUP1 PUSH1 0x40 MLOAD PUSH2 0x72 SWAP1 PUSH2 0x1DB JUMP JUMPDEST SWAP1 DUP2 MSTORE PUSH1 0x20 ADD PUSH1 0x40 MLOAD DUP1 SWAP2 SUB SWAP1 KECCAK256 PUSH1 0x0 SWAP1 SLOAD SWAP1 PUSH2 0x100 EXP SWAP1 DIV PUSH20 0xFFFFFFFFFFFFFFFFFFFFFFFFFFFFFFFFFFFFFFFF AND SWAP1 POP SWAP1 JUMP JUMPDEST PUSH20 0x17F6AD8EF982297579C203069C1DBFFE4348C372 PUSH1 0x0 PUSH1 0x40 MLOAD PUSH2 0xC9 SWAP1 PUSH2 0x1DB JUMP JUMPDEST SWAP1 DUP2 MSTORE PUSH1 0x20 ADD PUSH1 0x40 MLOAD DUP1 SWAP2 SUB SWAP1 KECCAK256 PUSH1 0x0 PUSH2 0x100 EXP DUP2 SLOAD DUP2 PUSH20 0xFFFFFFFFFFFFFFFFFFFFFFFFFFFFFFFFFFFFFFFF MUL NOT AND SWAP1 DUP4 PUSH20 0xFFFFFFFFFFFFFFFFFFFFFFFFFFFFFFFFFFFFFFFF AND MUL OR SWAP1 SSTORE POP PUSH20 0x1AE0EA34A72D944A8C7603FFB3EC30A6669E454C PUSH1 0x0 PUSH1 0x40 MLOAD PUSH2 0x138 SWAP1 PUSH2 0x1F0 JUMP JUMPDEST SWAP1 DUP2 MSTORE PUSH1 0x20 ADD PUSH1 0x40 MLOAD DUP1 SWAP2 SUB SWAP1 KECCAK256 PUSH1 0x0 PUSH2 0x100 EXP DUP2 SLOAD DUP2 PUSH20 0xFFFFFFFFFFFFFFFFFFFFFFFFFFFFFFFFFFFFFFFF MUL NOT AND SWAP1 DUP4 PUSH20 0xFFFFFFFFFFFFFFFFFFFFFFFFFFFFFFFFFFFFFFFF AND MUL OR SWAP1 SSTORE POP JUMP JUMPDEST PUSH2 0x18F DUP2 PUSH2 0x22B JUMP JUMPDEST DUP3 MSTORE POP POP JUMP JUMPDEST PUSH1 0x0 PUSH2 0x1A2 PUSH1 0x7 DUP4 PUSH2 0x220 JUMP JUMPDEST SWAP2 POP PUSH2 0x1AD DUP3 PUSH2 0x25D JUMP JUMPDEST PUSH1 0x7 DUP3 ADD SWAP1 POP SWAP2 SWAP1 POP JUMP JUMPDEST PUSH1 0x0 PUSH2 0x1C5 PUSH1 0x5 DUP4 PUSH2 0x220 JUMP JUMPDEST SWAP2 POP PUSH2 0x1D0 DUP3 PUSH2 0x286 JUMP JUMPDEST PUSH1 0x5 DUP3 ADD SWAP1 POP SWAP2 SWAP1 POP JUMP JUMPDEST PUSH1 0x0 PUSH2 0x1E6 DUP3 PUSH2 0x195 JUMP JUMPDEST SWAP2 POP DUP2 SWAP1 POP SWAP2 SWAP1 POP JUMP JUMPDEST PUSH1 0x0 PUSH2 0x1FB DUP3 PUSH2 0x1B8 JUMP JUMPDEST SWAP2 POP DUP2 SWAP1 POP SWAP2 SWAP1 POP JUMP JUMPDEST PUSH1 0x0 PUSH1 0x20 DUP3 ADD SWAP1 POP PUSH2 0x21A PUSH1 0x0 DUP4 ADD DUP5 PUSH2 0x186 JUMP JUMPDEST SWAP3 SWAP2 POP POP JUMP JUMPDEST PUSH1 0x0 DUP2 SWAP1 POP SWAP3 SWAP2 POP POP JUMP JUMPDEST PUSH1 0x0 PUSH2 0x236 DUP3 PUSH2 0x23D JUMP JUMPDEST SWAP1 POP SWAP2 SWAP1 POP JUMP JUMPDEST PUSH1 0x0 PUSH20 0xFFFFFFFFFFFFFFFFFFFFFFFFFFFFFFFFFFFFFFFF DUP3 AND SWAP1 POP SWAP2 SWAP1 POP JUMP JUMPDEST PUSH32 0x6E6172656E647200000000000000000000000000000000000000000000000000 PUSH1 0x0 DUP3 ADD MSTORE POP JUMP JUMPDEST PUSH32 0x726168756C000000000000000000000000000000000000000000000000000000 PUSH1 0x0 DUP3 ADD MSTORE POP JUMP INVALID LOG2 PUSH5 0x6970667358 0x22 SLT KECCAK256 0xE8 0xE7 DUP13 DUP8 0xDF 0xE9 0xE9 0xAC PUSH30 0x6448610E8765F5C932100A5AE67703E6D1F8019287D33C64736F6C634300 ADDMOD SMOD STOP CALLER "
				},
				"gasEstimates": {
					"creation": {
						"codeDepositCost": "148200",
						"executionCost": "196",
						"totalCost": "148396"
					},
					"external": {
						"get()": "2787",
						"hlo()": "infinite"
					}
				},
				"methodIdentifiers": {
					"get()": "6d4ce63c",
					"hlo()": "f7a58a4b"
				}
			},
			"storageLayout": {
				"storage": [
					{
						"astId": 5,
						"contract": "voting contract/voting.sol:voting",
						"label": "participant",
						"offset": 0,
						"slot": "0",
						"type": "t_mapping(t_string_memory_ptr,t_address)"
					}
				],
				"types": {
					"t_address": {
						"encoding": "inplace",
						"label": "address",
						"numberOfBytes": "20"
					},
					"t_mapping(t_string_memory_ptr,t_address)": {
						"encoding": "mapping",
						"key": "t_string_memory_ptr",
						"label": "mapping(string => address)",
						"numberOfBytes": "32",
						"value": "t_address"
					},
					"t_string_memory_ptr": {
						"encoding": "bytes",
						"label": "string",
						"numberOfBytes": "32"
					}
				}
			},
			"userdoc": {
				"kind": "user",
				"methods": {},
				"version": 1
			}
		}
	}
}