{
	"voting contract/voting.sol": {
		"voting": {
			"abi": [
				{
					"inputs": [],
					"name": "hlo",
					"outputs": [],
					"stateMutability": "nonpayable",
					"type": "function"
				}
			],
			"devdoc": {
				"kind": "dev",
				"methods": {},
				"version": 1
			},
			"evm": {
				"assembly": "    /* \"voting contract/voting.sol\":60:302  contract voting{\r... */\n  mstore(0x40, 0x80)\n  callvalue\n  dup1\n  iszero\n  tag_1\n  jumpi\n  0x00\n  dup1\n  revert\ntag_1:\n  pop\n  dataSize(sub_0)\n  dup1\n  dataOffset(sub_0)\n  0x00\n  codecopy\n  0x00\n  return\nstop\n\nsub_0: assembly {\n        /* \"voting contract/voting.sol\":60:302  contract voting{\r... */\n      mstore(0x40, 0x80)\n      callvalue\n      dup1\n      iszero\n      tag_1\n      jumpi\n      0x00\n      dup1\n      revert\n    tag_1:\n      pop\n      jumpi(tag_2, lt(calldatasize, 0x04))\n      shr(0xe0, calldataload(0x00))\n      dup1\n      0xf7a58a4b\n      eq\n      tag_3\n      jumpi\n    tag_2:\n      0x00\n      dup1\n      revert\n        /* \"voting contract/voting.sol\":126:299  function hlo() public {\r... */\n    tag_3:\n      tag_4\n      tag_5\n      jump\t// in\n    tag_4:\n      stop\n    tag_5:\n        /* \"voting contract/voting.sol\":179:221  0x17F6AD8Ef982297579C203069C1DbfFE4348c372 */\n      0x17f6ad8ef982297579c203069c1dbffe4348c372\n        /* \"voting contract/voting.sol\":155:166  participant */\n      0x00\n        /* \"voting contract/voting.sol\":155:177  participant[\"narendr\"] */\n      mload(0x40)\n      tag_7\n      swap1\n      tag_8\n      jump\t// in\n    tag_7:\n      swap1\n      dup2\n      mstore\n      0x20\n      add\n      mload(0x40)\n      dup1\n      swap2\n      sub\n      swap1\n      keccak256\n      0x00\n        /* \"voting contract/voting.sol\":155:221  participant[\"narendr\"]= 0x17F6AD8Ef982297579C203069C1DbfFE4348c372 */\n      0x0100\n      exp\n      dup2\n      sload\n      dup2\n      0xffffffffffffffffffffffffffffffffffffffff\n      mul\n      not\n      and\n      swap1\n      dup4\n      0xffffffffffffffffffffffffffffffffffffffff\n      and\n      mul\n      or\n      swap1\n      sstore\n      pop\n        /* \"voting contract/voting.sol\":251:293  0x1aE0EA34a72D944a8C7603FfB3eC30a6669E454C */\n      0x1ae0ea34a72d944a8c7603ffb3ec30a6669e454c\n        /* \"voting contract/voting.sol\":228:239  participant */\n      0x00\n        /* \"voting contract/voting.sol\":228:248  participant[\"rahul\"] */\n      mload(0x40)\n      tag_9\n      swap1\n      tag_10\n      jump\t// in\n    tag_9:\n      swap1\n      dup2\n      mstore\n      0x20\n      add\n      mload(0x40)\n      dup1\n      swap2\n      sub\n      swap1\n      keccak256\n      0x00\n        /* \"voting contract/voting.sol\":228:293  participant[\"rahul\"] = 0x1aE0EA34a72D944a8C7603FfB3eC30a6669E454C */\n      0x0100\n      exp\n      dup2\n      sload\n      dup2\n      0xffffffffffffffffffffffffffffffffffffffff\n      mul\n      not\n      and\n      swap1\n      dup4\n      0xffffffffffffffffffffffffffffffffffffffff\n      and\n      mul\n      or\n      swap1\n      sstore\n      pop\n        /* \"voting contract/voting.sol\":126:299  function hlo() public {\r... */\n      jump\t// out\n        /* \"#utility.yul\":7:407   */\n    tag_12:\n        /* \"#utility.yul\":167:170   */\n      0x00\n        /* \"#utility.yul\":188:272   */\n      tag_14\n        /* \"#utility.yul\":270:271   */\n      0x07\n        /* \"#utility.yul\":265:268   */\n      dup4\n        /* \"#utility.yul\":188:272   */\n      tag_15\n      jump\t// in\n    tag_14:\n        /* \"#utility.yul\":181:272   */\n      swap2\n      pop\n        /* \"#utility.yul\":281:374   */\n      tag_16\n        /* \"#utility.yul\":370:373   */\n      dup3\n        /* \"#utility.yul\":281:374   */\n      tag_17\n      jump\t// in\n    tag_16:\n        /* \"#utility.yul\":399:400   */\n      0x07\n        /* \"#utility.yul\":394:397   */\n      dup3\n        /* \"#utility.yul\":390:401   */\n      add\n        /* \"#utility.yul\":383:401   */\n      swap1\n      pop\n        /* \"#utility.yul\":7:407   */\n      swap2\n      swap1\n      pop\n      jump\t// out\n        /* \"#utility.yul\":413:813   */\n    tag_18:\n        /* \"#utility.yul\":573:576   */\n      0x00\n        /* \"#utility.yul\":594:678   */\n      tag_20\n        /* \"#utility.yul\":676:677   */\n      0x05\n        /* \"#utility.yul\":671:674   */\n      dup4\n        /* \"#utility.yul\":594:678   */\n      tag_15\n      jump\t// in\n    tag_20:\n        /* \"#utility.yul\":587:678   */\n      swap2\n      pop\n        /* \"#utility.yul\":687:780   */\n      tag_21\n        /* \"#utility.yul\":776:779   */\n      dup3\n        /* \"#utility.yul\":687:780   */\n      tag_22\n      jump\t// in\n    tag_21:\n        /* \"#utility.yul\":805:806   */\n      0x05\n        /* \"#utility.yul\":800:803   */\n      dup3\n        /* \"#utility.yul\":796:807   */\n      add\n        /* \"#utility.yul\":789:807   */\n      swap1\n      pop\n        /* \"#utility.yul\":413:813   */\n      swap2\n      swap1\n      pop\n      jump\t// out\n        /* \"#utility.yul\":819:1200   */\n    tag_8:\n        /* \"#utility.yul\":1004:1007   */\n      0x00\n        /* \"#utility.yul\":1026:1174   */\n      tag_24\n        /* \"#utility.yul\":1170:1173   */\n      dup3\n        /* \"#utility.yul\":1026:1174   */\n      tag_12\n      jump\t// in\n    tag_24:\n        /* \"#utility.yul\":1019:1174   */\n      swap2\n      pop\n        /* \"#utility.yul\":1191:1194   */\n      dup2\n        /* \"#utility.yul\":1184:1194   */\n      swap1\n      pop\n        /* \"#utility.yul\":819:1200   */\n      swap2\n      swap1\n      pop\n      jump\t// out\n        /* \"#utility.yul\":1206:1587   */\n    tag_10:\n        /* \"#utility.yul\":1391:1394   */\n      0x00\n        /* \"#utility.yul\":1413:1561   */\n      tag_26\n        /* \"#utility.yul\":1557:1560   */\n      dup3\n        /* \"#utility.yul\":1413:1561   */\n      tag_18\n      jump\t// in\n    tag_26:\n        /* \"#utility.yul\":1406:1561   */\n      swap2\n      pop\n        /* \"#utility.yul\":1578:1581   */\n      dup2\n        /* \"#utility.yul\":1571:1581   */\n      swap1\n      pop\n        /* \"#utility.yul\":1206:1587   */\n      swap2\n      swap1\n      pop\n      jump\t// out\n        /* \"#utility.yul\":1593:1741   */\n    tag_15:\n        /* \"#utility.yul\":1695:1706   */\n      0x00\n        /* \"#utility.yul\":1732:1735   */\n      dup2\n        /* \"#utility.yul\":1717:1735   */\n      swap1\n      pop\n        /* \"#utility.yul\":1593:1741   */\n      swap3\n      swap2\n      pop\n      pop\n      jump\t// out\n        /* \"#utility.yul\":1747:1904   */\n    tag_17:\n        /* \"#utility.yul\":1887:1896   */\n      0x6e6172656e647200000000000000000000000000000000000000000000000000\n        /* \"#utility.yul\":1883:1884   */\n      0x00\n        /* \"#utility.yul\":1875:1881   */\n      dup3\n        /* \"#utility.yul\":1871:1885   */\n      add\n        /* \"#utility.yul\":1864:1897   */\n      mstore\n        /* \"#utility.yul\":1747:1904   */\n      pop\n      jump\t// out\n        /* \"#utility.yul\":1910:2065   */\n    tag_22:\n        /* \"#utility.yul\":2050:2057   */\n      0x726168756c000000000000000000000000000000000000000000000000000000\n        /* \"#utility.yul\":2046:2047   */\n      0x00\n        /* \"#utility.yul\":2038:2044   */\n      dup3\n        /* \"#utility.yul\":2034:2048   */\n      add\n        /* \"#utility.yul\":2027:2058   */\n      mstore\n        /* \"#utility.yul\":1910:2065   */\n      pop\n      jump\t// out\n\n    auxdata: 0xa264697066735822122033cab61eaa489241bce3e84255b6bed40df5c0bdcede7f4c99fa1ef7f99c6d6164736f6c63430008070033\n}\n",
				"bytecode": {
					"linkReferences": {},
					"object": "608060405234801561001057600080fd5b5061021d806100206000396000f3fe608060405234801561001057600080fd5b506004361061002b5760003560e01c8063f7a58a4b14610030575b600080fd5b61003861003a565b005b7317f6ad8ef982297579c203069c1dbffe4348c372600060405161005d90610160565b908152602001604051809103902060006101000a81548173ffffffffffffffffffffffffffffffffffffffff021916908373ffffffffffffffffffffffffffffffffffffffff160217905550731ae0ea34a72d944a8c7603ffb3ec30a6669e454c60006040516100cc90610175565b908152602001604051809103902060006101000a81548173ffffffffffffffffffffffffffffffffffffffff021916908373ffffffffffffffffffffffffffffffffffffffff160217905550565b600061012760078361018a565b915061013282610195565b600782019050919050565b600061014a60058361018a565b9150610155826101be565b600582019050919050565b600061016b8261011a565b9150819050919050565b60006101808261013d565b9150819050919050565b600081905092915050565b7f6e6172656e647200000000000000000000000000000000000000000000000000600082015250565b7f726168756c00000000000000000000000000000000000000000000000000000060008201525056fea264697066735822122033cab61eaa489241bce3e84255b6bed40df5c0bdcede7f4c99fa1ef7f99c6d6164736f6c63430008070033",
					"opcodes": "PUSH1 0x80 PUSH1 0x40 MSTORE CALLVALUE DUP1 ISZERO PUSH2 0x10 JUMPI PUSH1 0x0 DUP1 REVERT JUMPDEST POP PUSH2 0x21D DUP1 PUSH2 0x20 PUSH1 0x0 CODECOPY PUSH1 0x0 RETURN INVALID PUSH1 0x80 PUSH1 0x40 MSTORE CALLVALUE DUP1 ISZERO PUSH2 0x10 JUMPI PUSH1 0x0 DUP1 REVERT JUMPDEST POP PUSH1 0x4 CALLDATASIZE LT PUSH2 0x2B JUMPI PUSH1 0x0 CALLDATALOAD PUSH1 0xE0 SHR DUP1 PUSH4 0xF7A58A4B EQ PUSH2 0x30 JUMPI JUMPDEST PUSH1 0x0 DUP1 REVERT JUMPDEST PUSH2 0x38 PUSH2 0x3A JUMP JUMPDEST STOP JUMPDEST PUSH20 0x17F6AD8EF982297579C203069C1DBFFE4348C372 PUSH1 0x0 PUSH1 0x40 MLOAD PUSH2 0x5D SWAP1 PUSH2 0x160 JUMP JUMPDEST SWAP1 DUP2 MSTORE PUSH1 0x20 ADD PUSH1 0x40 MLOAD DUP1 SWAP2 SUB SWAP1 KECCAK256 PUSH1 0x0 PUSH2 0x100 EXP DUP2 SLOAD DUP2 PUSH20 0xFFFFFFFFFFFFFFFFFFFFFFFFFFFFFFFFFFFFFFFF MUL NOT AND SWAP1 DUP4 PUSH20 0xFFFFFFFFFFFFFFFFFFFFFFFFFFFFFFFFFFFFFFFF AND MUL OR SWAP1 SSTORE POP PUSH20 0x1AE0EA34A72D944A8C7603FFB3EC30A6669E454C PUSH1 0x0 PUSH1 0x40 MLOAD PUSH2 0xCC SWAP1 PUSH2 0x175 JUMP JUMPDEST SWAP1 DUP2 MSTORE PUSH1 0x20 ADD PUSH1 0x40 MLOAD DUP1 SWAP2 SUB SWAP1 KECCAK256 PUSH1 0x0 PUSH2 0x100 EXP DUP2 SLOAD DUP2 PUSH20 0xFFFFFFFFFFFFFFFFFFFFFFFFFFFFFFFFFFFFFFFF MUL NOT AND SWAP1 DUP4 PUSH20 0xFFFFFFFFFFFFFFFFFFFFFFFFFFFFFFFFFFFFFFFF AND MUL OR SWAP1 SSTORE POP JUMP JUMPDEST PUSH1 0x0 PUSH2 0x127 PUSH1 0x7 DUP4 PUSH2 0x18A JUMP JUMPDEST SWAP2 POP PUSH2 0x132 DUP3 PUSH2 0x195 JUMP JUMPDEST PUSH1 0x7 DUP3 ADD SWAP1 POP SWAP2 SWAP1 POP JUMP JUMPDEST PUSH1 0x0 PUSH2 0x14A PUSH1 0x5 DUP4 PUSH2 0x18A JUMP JUMPDEST SWAP2 POP PUSH2 0x155 DUP3 PUSH2 0x1BE JUMP JUMPDEST PUSH1 0x5 DUP3 ADD SWAP1 POP SWAP2 SWAP1 POP JUMP JUMPDEST PUSH1 0x0 PUSH2 0x16B DUP3 PUSH2 0x11A JUMP JUMPDEST SWAP2 POP DUP2 SWAP1 POP SWAP2 SWAP1 POP JUMP JUMPDEST PUSH1 0x0 PUSH2 0x180 DUP3 PUSH2 0x13D JUMP JUMPDEST SWAP2 POP DUP2 SWAP1 POP SWAP2 SWAP1 POP JUMP JUMPDEST PUSH1 0x0 DUP2 SWAP1 POP SWAP3 SWAP2 POP POP JUMP JUMPDEST PUSH32 0x6E6172656E647200000000000000000000000000000000000000000000000000 PUSH1 0x0 DUP3 ADD MSTORE POP JUMP JUMPDEST PUSH32 0x726168756C000000000000000000000000000000000000000000000000000000 PUSH1 0x0 DUP3 ADD MSTORE POP JUMP INVALID LOG2 PUSH5 0x6970667358 0x22 SLT KECCAK256 CALLER 0xCA 0xB6 0x1E 0xAA BASEFEE SWAP3 COINBASE 0xBC 0xE3 0xE8 TIMESTAMP SSTORE 0xB6 0xBE 0xD4 0xD CREATE2 0xC0 0xBD 0xCE 0xDE PUSH32 0x4C99FA1EF7F99C6D6164736F6C63430008070033000000000000000000000000 "
				},
				"gasEstimates": {
					"creation": {
						"codeDepositCost": "108200",
						"executionCost": "153",
						"totalCost": "108353"
					},
					"external": {
						"hlo()": "infinite"
					}
				},
				"methodIdentifiers": {
					"hlo()": "f7a58a4b"
				}
			},
			"storageLayout": {
				"storage": [
					{
						"astId": 5,
						"contract": "voting contract/voting.sol:voting",
						"label": "participant",
						"offset": 0,
						"slot": "0",
						"type": "t_mapping(t_string_memory_ptr,t_address)"
					}
				],
				"types": {
					"t_address": {
						"encoding": "inplace",
						"label": "address",
						"numberOfBytes": "20"
					},
					"t_mapping(t_string_memory_ptr,t_address)": {
						"encoding": "mapping",
						"key": "t_string_memory_ptr",
						"label": "mapping(string => address)",
						"numberOfBytes": "32",
						"value": "t_address"
					},
					"t_string_memory_ptr": {
						"encoding": "bytes",
						"label": "string",
						"numberOfBytes": "32"
					}
				}
			},
			"userdoc": {
				"kind": "user",
				"methods": {},
				"version": 1
			}
		}
	}
}