{
	"voting contract/voting.sol": {
		"voting": {
			"abi": [
				{
					"inputs": [],
					"name": "ak",
					"outputs": [],
					"stateMutability": "nonpayable",
					"type": "function"
				},
				{
					"inputs": [],
					"name": "nm",
					"outputs": [],
					"stateMutability": "nonpayable",
					"type": "function"
				},
				{
					"inputs": [],
					"name": "rh",
					"outputs": [],
					"stateMutability": "nonpayable",
					"type": "function"
				}
			],
			"devdoc": {
				"kind": "dev",
				"methods": {},
				"version": 1
			},
			"evm": {
				"assembly": "    /* \"voting contract/voting.sol\":60:220  contract voting{\r... */\n  mstore(0x40, 0x80)\n  callvalue\n  dup1\n  iszero\n  tag_1\n  jumpi\n  0x00\n  dup1\n  revert\ntag_1:\n  pop\n  dataSize(sub_0)\n  dup1\n  dataOffset(sub_0)\n  0x00\n  codecopy\n  0x00\n  return\nstop\n\nsub_0: assembly {\n        /* \"voting contract/voting.sol\":60:220  contract voting{\r... */\n      mstore(0x40, 0x80)\n      callvalue\n      dup1\n      iszero\n      tag_1\n      jumpi\n      0x00\n      dup1\n      revert\n    tag_1:\n      pop\n      jumpi(tag_2, lt(calldatasize, 0x04))\n      shr(0xe0, calldataload(0x00))\n      dup1\n      0x046faf74\n      eq\n      tag_3\n      jumpi\n      dup1\n      0x49282d84\n      eq\n      tag_4\n      jumpi\n      dup1\n      0xd7686eb7\n      eq\n      tag_5\n      jumpi\n    tag_2:\n      0x00\n      dup1\n      revert\n        /* \"voting contract/voting.sol\":121:160  function rh() public {\r... */\n    tag_3:\n      tag_6\n      tag_7\n      jump\t// in\n    tag_6:\n      stop\n        /* \"voting contract/voting.sol\":82:113  function nm() public {\r... */\n    tag_4:\n      tag_8\n      tag_9\n      jump\t// in\n    tag_8:\n      stop\n        /* \"voting contract/voting.sol\":168:207  function ak() public {\r... */\n    tag_5:\n      tag_10\n      tag_11\n      jump\t// in\n    tag_10:\n      stop\n        /* \"voting contract/voting.sol\":121:160  function rh() public {\r... */\n    tag_7:\n      jump\t// out\n        /* \"voting contract/voting.sol\":82:113  function nm() public {\r... */\n    tag_9:\n      jump\t// out\n        /* \"voting contract/voting.sol\":168:207  function ak() public {\r... */\n    tag_11:\n      jump\t// out\n\n    auxdata: 0xa26469706673582212209a8606b306a41b341496f7a1caed370b72b5bc99461902b732af28120283347a64736f6c63430008070033\n}\n",
				"bytecode": {
					"linkReferences": {},
					"object": "6080604052348015600f57600080fd5b5060958061001e6000396000f3fe6080604052348015600f57600080fd5b5060043610603c5760003560e01c8063046faf7414604157806349282d84146049578063d7686eb7146051575b600080fd5b60476059565b005b604f605b565b005b6057605d565b005b565b565b56fea26469706673582212209a8606b306a41b341496f7a1caed370b72b5bc99461902b732af28120283347a64736f6c63430008070033",
					"opcodes": "PUSH1 0x80 PUSH1 0x40 MSTORE CALLVALUE DUP1 ISZERO PUSH1 0xF JUMPI PUSH1 0x0 DUP1 REVERT JUMPDEST POP PUSH1 0x95 DUP1 PUSH2 0x1E PUSH1 0x0 CODECOPY PUSH1 0x0 RETURN INVALID PUSH1 0x80 PUSH1 0x40 MSTORE CALLVALUE DUP1 ISZERO PUSH1 0xF JUMPI PUSH1 0x0 DUP1 REVERT JUMPDEST POP PUSH1 0x4 CALLDATASIZE LT PUSH1 0x3C JUMPI PUSH1 0x0 CALLDATALOAD PUSH1 0xE0 SHR DUP1 PUSH4 0x46FAF74 EQ PUSH1 0x41 JUMPI DUP1 PUSH4 0x49282D84 EQ PUSH1 0x49 JUMPI DUP1 PUSH4 0xD7686EB7 EQ PUSH1 0x51 JUMPI JUMPDEST PUSH1 0x0 DUP1 REVERT JUMPDEST PUSH1 0x47 PUSH1 0x59 JUMP JUMPDEST STOP JUMPDEST PUSH1 0x4F PUSH1 0x5B JUMP JUMPDEST STOP JUMPDEST PUSH1 0x57 PUSH1 0x5D JUMP JUMPDEST STOP JUMPDEST JUMP JUMPDEST JUMP JUMPDEST JUMP INVALID LOG2 PUSH5 0x6970667358 0x22 SLT KECCAK256 SWAP11 DUP7 MOD 0xB3 MOD LOG4 SHL CALLVALUE EQ SWAP7 0xF7 LOG1 0xCA 0xED CALLDATACOPY SIGNEXTEND PUSH19 0xB5BC99461902B732AF28120283347A64736F6C PUSH4 0x43000807 STOP CALLER "
				},
				"gasEstimates": {
					"creation": {
						"codeDepositCost": "29800",
						"executionCost": "81",
						"totalCost": "29881"
					},
					"external": {
						"ak()": "166",
						"nm()": "144",
						"rh()": "122"
					}
				},
				"methodIdentifiers": {
					"ak()": "d7686eb7",
					"nm()": "49282d84",
					"rh()": "046faf74"
				}
			},
			"storageLayout": {
				"storage": [],
				"types": null
			},
			"userdoc": {
				"kind": "user",
				"methods": {},
				"version": 1
			}
		}
	}
}