{
	"voting contract/voting.sol": {
		"voting": {
			"abi": [
				{
					"inputs": [],
					"name": "ArvindKejrwial",
					"outputs": [
						{
							"internalType": "address",
							"name": "",
							"type": "address"
						}
					],
					"stateMutability": "view",
					"type": "function"
				},
				{
					"inputs": [],
					"name": "NarendraModi",
					"outputs": [
						{
							"internalType": "address payable",
							"name": "",
							"type": "address"
						}
					],
					"stateMutability": "view",
					"type": "function"
				},
				{
					"inputs": [],
					"name": "RahulGandhi",
					"outputs": [
						{
							"internalType": "address payable",
							"name": "",
							"type": "address"
						}
					],
					"stateMutability": "view",
					"type": "function"
				},
				{
					"inputs": [],
					"name": "vote",
					"outputs": [],
					"stateMutability": "nonpayable",
					"type": "function"
				},
				{
					"inputs": [],
					"name": "votecount",
					"outputs": [
						{
							"internalType": "uint256",
							"name": "",
							"type": "uint256"
						}
					],
					"stateMutability": "view",
					"type": "function"
				}
			],
			"devdoc": {
				"kind": "dev",
				"methods": {},
				"version": 1
			},
			"evm": {
				"assembly": "    /* \"voting contract/voting.sol\":62:289  contract voting{\r... */\n  mstore(0x40, 0x80)\n  callvalue\n  dup1\n  iszero\n  tag_1\n  jumpi\n  0x00\n  dup1\n  revert\ntag_1:\n  pop\n  dataSize(sub_0)\n  dup1\n  dataOffset(sub_0)\n  0x00\n  codecopy\n  0x00\n  return\nstop\n\nsub_0: assembly {\n        /* \"voting contract/voting.sol\":62:289  contract voting{\r... */\n      mstore(0x40, 0x80)\n      callvalue\n      dup1\n      iszero\n      tag_1\n      jumpi\n      0x00\n      dup1\n      revert\n    tag_1:\n      pop\n      jumpi(tag_2, lt(calldatasize, 0x04))\n      shr(0xe0, calldataload(0x00))\n      dup1\n      0x0fc4ea58\n      eq\n      tag_3\n      jumpi\n      dup1\n      0x5f768865\n      eq\n      tag_4\n      jumpi\n      dup1\n      0x632a9a52\n      eq\n      tag_5\n      jumpi\n      dup1\n      0x71fc4b07\n      eq\n      tag_6\n      jumpi\n      dup1\n      0x969dde69\n      eq\n      tag_7\n      jumpi\n    tag_2:\n      0x00\n      dup1\n      revert\n        /* \"voting contract/voting.sol\":168:197  address public ArvindKejrwial */\n    tag_3:\n      tag_8\n      tag_9\n      jump\t// in\n    tag_8:\n      mload(0x40)\n      tag_10\n      swap2\n      swap1\n      tag_11\n      jump\t// in\n    tag_10:\n      mload(0x40)\n      dup1\n      swap2\n      sub\n      swap1\n      return\n        /* \"voting contract/voting.sol\":126:161  address payable public NarendraModi */\n    tag_4:\n      tag_12\n      tag_13\n      jump\t// in\n    tag_12:\n      mload(0x40)\n      tag_14\n      swap2\n      swap1\n      tag_15\n      jump\t// in\n    tag_14:\n      mload(0x40)\n      dup1\n      swap2\n      sub\n      swap1\n      return\n        /* \"voting contract/voting.sol\":236:273  function vote() public {\r... */\n    tag_5:\n      tag_16\n      tag_17\n      jump\t// in\n    tag_16:\n      stop\n        /* \"voting contract/voting.sol\":84:119  address payable public  RahulGandhi */\n    tag_6:\n      tag_18\n      tag_19\n      jump\t// in\n    tag_18:\n      mload(0x40)\n      tag_20\n      swap2\n      swap1\n      tag_15\n      jump\t// in\n    tag_20:\n      mload(0x40)\n      dup1\n      swap2\n      sub\n      swap1\n      return\n        /* \"voting contract/voting.sol\":204:225  uint public votecount */\n    tag_7:\n      tag_21\n      tag_22\n      jump\t// in\n    tag_21:\n      mload(0x40)\n      tag_23\n      swap2\n      swap1\n      tag_24\n      jump\t// in\n    tag_23:\n      mload(0x40)\n      dup1\n      swap2\n      sub\n      swap1\n      return\n        /* \"voting contract/voting.sol\":168:197  address public ArvindKejrwial */\n    tag_9:\n      0x02\n      0x00\n      swap1\n      sload\n      swap1\n      0x0100\n      exp\n      swap1\n      div\n      0xffffffffffffffffffffffffffffffffffffffff\n      and\n      dup2\n      jump\t// out\n        /* \"voting contract/voting.sol\":126:161  address payable public NarendraModi */\n    tag_13:\n      0x01\n      0x00\n      swap1\n      sload\n      swap1\n      0x0100\n      exp\n      swap1\n      div\n      0xffffffffffffffffffffffffffffffffffffffff\n      and\n      dup2\n      jump\t// out\n        /* \"voting contract/voting.sol\":236:273  function vote() public {\r... */\n    tag_17:\n      jump\t// out\n        /* \"voting contract/voting.sol\":84:119  address payable public  RahulGandhi */\n    tag_19:\n      0x00\n      dup1\n      sload\n      swap1\n      0x0100\n      exp\n      swap1\n      div\n      0xffffffffffffffffffffffffffffffffffffffff\n      and\n      dup2\n      jump\t// out\n        /* \"voting contract/voting.sol\":204:225  uint public votecount */\n    tag_22:\n      sload(0x03)\n      dup2\n      jump\t// out\n        /* \"#utility.yul\":7:149   */\n    tag_27:\n        /* \"#utility.yul\":110:142   */\n      tag_29\n        /* \"#utility.yul\":136:141   */\n      dup2\n        /* \"#utility.yul\":110:142   */\n      tag_30\n      jump\t// in\n    tag_29:\n        /* \"#utility.yul\":105:108   */\n      dup3\n        /* \"#utility.yul\":98:143   */\n      mstore\n        /* \"#utility.yul\":7:149   */\n      pop\n      pop\n      jump\t// out\n        /* \"#utility.yul\":155:273   */\n    tag_31:\n        /* \"#utility.yul\":242:266   */\n      tag_33\n        /* \"#utility.yul\":260:265   */\n      dup2\n        /* \"#utility.yul\":242:266   */\n      tag_34\n      jump\t// in\n    tag_33:\n        /* \"#utility.yul\":237:240   */\n      dup3\n        /* \"#utility.yul\":230:267   */\n      mstore\n        /* \"#utility.yul\":155:273   */\n      pop\n      pop\n      jump\t// out\n        /* \"#utility.yul\":279:397   */\n    tag_35:\n        /* \"#utility.yul\":366:390   */\n      tag_37\n        /* \"#utility.yul\":384:389   */\n      dup2\n        /* \"#utility.yul\":366:390   */\n      tag_38\n      jump\t// in\n    tag_37:\n        /* \"#utility.yul\":361:364   */\n      dup3\n        /* \"#utility.yul\":354:391   */\n      mstore\n        /* \"#utility.yul\":279:397   */\n      pop\n      pop\n      jump\t// out\n        /* \"#utility.yul\":403:625   */\n    tag_11:\n        /* \"#utility.yul\":496:500   */\n      0x00\n        /* \"#utility.yul\":534:536   */\n      0x20\n        /* \"#utility.yul\":523:532   */\n      dup3\n        /* \"#utility.yul\":519:537   */\n      add\n        /* \"#utility.yul\":511:537   */\n      swap1\n      pop\n        /* \"#utility.yul\":547:618   */\n      tag_40\n        /* \"#utility.yul\":615:616   */\n      0x00\n        /* \"#utility.yul\":604:613   */\n      dup4\n        /* \"#utility.yul\":600:617   */\n      add\n        /* \"#utility.yul\":591:597   */\n      dup5\n        /* \"#utility.yul\":547:618   */\n      tag_31\n      jump\t// in\n    tag_40:\n        /* \"#utility.yul\":403:625   */\n      swap3\n      swap2\n      pop\n      pop\n      jump\t// out\n        /* \"#utility.yul\":631:885   */\n    tag_15:\n        /* \"#utility.yul\":740:744   */\n      0x00\n        /* \"#utility.yul\":778:780   */\n      0x20\n        /* \"#utility.yul\":767:776   */\n      dup3\n        /* \"#utility.yul\":763:781   */\n      add\n        /* \"#utility.yul\":755:781   */\n      swap1\n      pop\n        /* \"#utility.yul\":791:878   */\n      tag_42\n        /* \"#utility.yul\":875:876   */\n      0x00\n        /* \"#utility.yul\":864:873   */\n      dup4\n        /* \"#utility.yul\":860:877   */\n      add\n        /* \"#utility.yul\":851:857   */\n      dup5\n        /* \"#utility.yul\":791:878   */\n      tag_27\n      jump\t// in\n    tag_42:\n        /* \"#utility.yul\":631:885   */\n      swap3\n      swap2\n      pop\n      pop\n      jump\t// out\n        /* \"#utility.yul\":891:1113   */\n    tag_24:\n        /* \"#utility.yul\":984:988   */\n      0x00\n        /* \"#utility.yul\":1022:1024   */\n      0x20\n        /* \"#utility.yul\":1011:1020   */\n      dup3\n        /* \"#utility.yul\":1007:1025   */\n      add\n        /* \"#utility.yul\":999:1025   */\n      swap1\n      pop\n        /* \"#utility.yul\":1035:1106   */\n      tag_44\n        /* \"#utility.yul\":1103:1104   */\n      0x00\n        /* \"#utility.yul\":1092:1101   */\n      dup4\n        /* \"#utility.yul\":1088:1105   */\n      add\n        /* \"#utility.yul\":1079:1085   */\n      dup5\n        /* \"#utility.yul\":1035:1106   */\n      tag_35\n      jump\t// in\n    tag_44:\n        /* \"#utility.yul\":891:1113   */\n      swap3\n      swap2\n      pop\n      pop\n      jump\t// out\n        /* \"#utility.yul\":1119:1215   */\n    tag_34:\n        /* \"#utility.yul\":1156:1163   */\n      0x00\n        /* \"#utility.yul\":1185:1209   */\n      tag_46\n        /* \"#utility.yul\":1203:1208   */\n      dup3\n        /* \"#utility.yul\":1185:1209   */\n      tag_47\n      jump\t// in\n    tag_46:\n        /* \"#utility.yul\":1174:1209   */\n      swap1\n      pop\n        /* \"#utility.yul\":1119:1215   */\n      swap2\n      swap1\n      pop\n      jump\t// out\n        /* \"#utility.yul\":1221:1325   */\n    tag_30:\n        /* \"#utility.yul\":1266:1273   */\n      0x00\n        /* \"#utility.yul\":1295:1319   */\n      tag_49\n        /* \"#utility.yul\":1313:1318   */\n      dup3\n        /* \"#utility.yul\":1295:1319   */\n      tag_47\n      jump\t// in\n    tag_49:\n        /* \"#utility.yul\":1284:1319   */\n      swap1\n      pop\n        /* \"#utility.yul\":1221:1325   */\n      swap2\n      swap1\n      pop\n      jump\t// out\n        /* \"#utility.yul\":1331:1457   */\n    tag_47:\n        /* \"#utility.yul\":1368:1375   */\n      0x00\n        /* \"#utility.yul\":1408:1450   */\n      0xffffffffffffffffffffffffffffffffffffffff\n        /* \"#utility.yul\":1401:1406   */\n      dup3\n        /* \"#utility.yul\":1397:1451   */\n      and\n        /* \"#utility.yul\":1386:1451   */\n      swap1\n      pop\n        /* \"#utility.yul\":1331:1457   */\n      swap2\n      swap1\n      pop\n      jump\t// out\n        /* \"#utility.yul\":1463:1540   */\n    tag_38:\n        /* \"#utility.yul\":1500:1507   */\n      0x00\n        /* \"#utility.yul\":1529:1534   */\n      dup2\n        /* \"#utility.yul\":1518:1534   */\n      swap1\n      pop\n        /* \"#utility.yul\":1463:1540   */\n      swap2\n      swap1\n      pop\n      jump\t// out\n\n    auxdata: 0xa26469706673582212200b92952057045694404e9f91680399fb477749383d18f50d3f6ebec28064658f64736f6c63430008070033\n}\n",
				"bytecode": {
					"linkReferences": {},
					"object": "608060405234801561001057600080fd5b50610258806100206000396000f3fe608060405234801561001057600080fd5b50600436106100575760003560e01c80630fc4ea581461005c5780635f7688651461007a578063632a9a521461009857806371fc4b07146100a2578063969dde69146100c0575b600080fd5b6100646100de565b6040516100719190610183565b60405180910390f35b610082610104565b60405161008f919061019e565b60405180910390f35b6100a061012a565b005b6100aa61012c565b6040516100b7919061019e565b60405180910390f35b6100c8610150565b6040516100d591906101b9565b60405180910390f35b600260009054906101000a900473ffffffffffffffffffffffffffffffffffffffff1681565b600160009054906101000a900473ffffffffffffffffffffffffffffffffffffffff1681565b565b60008054906101000a900473ffffffffffffffffffffffffffffffffffffffff1681565b60035481565b61015f816101e6565b82525050565b61016e816101d4565b82525050565b61017d81610218565b82525050565b60006020820190506101986000830184610165565b92915050565b60006020820190506101b36000830184610156565b92915050565b60006020820190506101ce6000830184610174565b92915050565b60006101df826101f8565b9050919050565b60006101f1826101f8565b9050919050565b600073ffffffffffffffffffffffffffffffffffffffff82169050919050565b600081905091905056fea26469706673582212200b92952057045694404e9f91680399fb477749383d18f50d3f6ebec28064658f64736f6c63430008070033",
					"opcodes": "PUSH1 0x80 PUSH1 0x40 MSTORE CALLVALUE DUP1 ISZERO PUSH2 0x10 JUMPI PUSH1 0x0 DUP1 REVERT JUMPDEST POP PUSH2 0x258 DUP1 PUSH2 0x20 PUSH1 0x0 CODECOPY PUSH1 0x0 RETURN INVALID PUSH1 0x80 PUSH1 0x40 MSTORE CALLVALUE DUP1 ISZERO PUSH2 0x10 JUMPI PUSH1 0x0 DUP1 REVERT JUMPDEST POP PUSH1 0x4 CALLDATASIZE LT PUSH2 0x57 JUMPI PUSH1 0x0 CALLDATALOAD PUSH1 0xE0 SHR DUP1 PUSH4 0xFC4EA58 EQ PUSH2 0x5C JUMPI DUP1 PUSH4 0x5F768865 EQ PUSH2 0x7A JUMPI DUP1 PUSH4 0x632A9A52 EQ PUSH2 0x98 JUMPI DUP1 PUSH4 0x71FC4B07 EQ PUSH2 0xA2 JUMPI DUP1 PUSH4 0x969DDE69 EQ PUSH2 0xC0 JUMPI JUMPDEST PUSH1 0x0 DUP1 REVERT JUMPDEST PUSH2 0x64 PUSH2 0xDE JUMP JUMPDEST PUSH1 0x40 MLOAD PUSH2 0x71 SWAP2 SWAP1 PUSH2 0x183 JUMP JUMPDEST PUSH1 0x40 MLOAD DUP1 SWAP2 SUB SWAP1 RETURN JUMPDEST PUSH2 0x82 PUSH2 0x104 JUMP JUMPDEST PUSH1 0x40 MLOAD PUSH2 0x8F SWAP2 SWAP1 PUSH2 0x19E JUMP JUMPDEST PUSH1 0x40 MLOAD DUP1 SWAP2 SUB SWAP1 RETURN JUMPDEST PUSH2 0xA0 PUSH2 0x12A JUMP JUMPDEST STOP JUMPDEST PUSH2 0xAA PUSH2 0x12C JUMP JUMPDEST PUSH1 0x40 MLOAD PUSH2 0xB7 SWAP2 SWAP1 PUSH2 0x19E JUMP JUMPDEST PUSH1 0x40 MLOAD DUP1 SWAP2 SUB SWAP1 RETURN JUMPDEST PUSH2 0xC8 PUSH2 0x150 JUMP JUMPDEST PUSH1 0x40 MLOAD PUSH2 0xD5 SWAP2 SWAP1 PUSH2 0x1B9 JUMP JUMPDEST PUSH1 0x40 MLOAD DUP1 SWAP2 SUB SWAP1 RETURN JUMPDEST PUSH1 0x2 PUSH1 0x0 SWAP1 SLOAD SWAP1 PUSH2 0x100 EXP SWAP1 DIV PUSH20 0xFFFFFFFFFFFFFFFFFFFFFFFFFFFFFFFFFFFFFFFF AND DUP2 JUMP JUMPDEST PUSH1 0x1 PUSH1 0x0 SWAP1 SLOAD SWAP1 PUSH2 0x100 EXP SWAP1 DIV PUSH20 0xFFFFFFFFFFFFFFFFFFFFFFFFFFFFFFFFFFFFFFFF AND DUP2 JUMP JUMPDEST JUMP JUMPDEST PUSH1 0x0 DUP1 SLOAD SWAP1 PUSH2 0x100 EXP SWAP1 DIV PUSH20 0xFFFFFFFFFFFFFFFFFFFFFFFFFFFFFFFFFFFFFFFF AND DUP2 JUMP JUMPDEST PUSH1 0x3 SLOAD DUP2 JUMP JUMPDEST PUSH2 0x15F DUP2 PUSH2 0x1E6 JUMP JUMPDEST DUP3 MSTORE POP POP JUMP JUMPDEST PUSH2 0x16E DUP2 PUSH2 0x1D4 JUMP JUMPDEST DUP3 MSTORE POP POP JUMP JUMPDEST PUSH2 0x17D DUP2 PUSH2 0x218 JUMP JUMPDEST DUP3 MSTORE POP POP JUMP JUMPDEST PUSH1 0x0 PUSH1 0x20 DUP3 ADD SWAP1 POP PUSH2 0x198 PUSH1 0x0 DUP4 ADD DUP5 PUSH2 0x165 JUMP JUMPDEST SWAP3 SWAP2 POP POP JUMP JUMPDEST PUSH1 0x0 PUSH1 0x20 DUP3 ADD SWAP1 POP PUSH2 0x1B3 PUSH1 0x0 DUP4 ADD DUP5 PUSH2 0x156 JUMP JUMPDEST SWAP3 SWAP2 POP POP JUMP JUMPDEST PUSH1 0x0 PUSH1 0x20 DUP3 ADD SWAP1 POP PUSH2 0x1CE PUSH1 0x0 DUP4 ADD DUP5 PUSH2 0x174 JUMP JUMPDEST SWAP3 SWAP2 POP POP JUMP JUMPDEST PUSH1 0x0 PUSH2 0x1DF DUP3 PUSH2 0x1F8 JUMP JUMPDEST SWAP1 POP SWAP2 SWAP1 POP JUMP JUMPDEST PUSH1 0x0 PUSH2 0x1F1 DUP3 PUSH2 0x1F8 JUMP JUMPDEST SWAP1 POP SWAP2 SWAP1 POP JUMP JUMPDEST PUSH1 0x0 PUSH20 0xFFFFFFFFFFFFFFFFFFFFFFFFFFFFFFFFFFFFFFFF DUP3 AND SWAP1 POP SWAP2 SWAP1 POP JUMP JUMPDEST PUSH1 0x0 DUP2 SWAP1 POP SWAP2 SWAP1 POP JUMP INVALID LOG2 PUSH5 0x6970667358 0x22 SLT KECCAK256 SIGNEXTEND SWAP3 SWAP6 KECCAK256 JUMPI DIV JUMP SWAP5 BLOCKHASH 0x4E SWAP16 SWAP2 PUSH9 0x399FB477749383D18 CREATE2 0xD EXTCODEHASH PUSH15 0xBEC28064658F64736F6C6343000807 STOP CALLER "
				},
				"gasEstimates": {
					"creation": {
						"codeDepositCost": "120000",
						"executionCost": "165",
						"totalCost": "120165"
					},
					"external": {
						"ArvindKejrwial()": "2492",
						"NarendraModi()": "2514",
						"RahulGandhi()": "2555",
						"vote()": "166",
						"votecount()": "2495"
					}
				},
				"methodIdentifiers": {
					"ArvindKejrwial()": "0fc4ea58",
					"NarendraModi()": "5f768865",
					"RahulGandhi()": "71fc4b07",
					"vote()": "632a9a52",
					"votecount()": "969dde69"
				}
			},
			"storageLayout": {
				"storage": [
					{
						"astId": 3,
						"contract": "voting contract/voting.sol:voting",
						"label": "RahulGandhi",
						"offset": 0,
						"slot": "0",
						"type": "t_address_payable"
					},
					{
						"astId": 5,
						"contract": "voting contract/voting.sol:voting",
						"label": "NarendraModi",
						"offset": 0,
						"slot": "1",
						"type": "t_address_payable"
					},
					{
						"astId": 7,
						"contract": "voting contract/voting.sol:voting",
						"label": "ArvindKejrwial",
						"offset": 0,
						"slot": "2",
						"type": "t_address"
					},
					{
						"astId": 9,
						"contract": "voting contract/voting.sol:voting",
						"label": "votecount",
						"offset": 0,
						"slot": "3",
						"type": "t_uint256"
					}
				],
				"types": {
					"t_address": {
						"encoding": "inplace",
						"label": "address",
						"numberOfBytes": "20"
					},
					"t_address_payable": {
						"encoding": "inplace",
						"label": "address payable",
						"numberOfBytes": "20"
					},
					"t_uint256": {
						"encoding": "inplace",
						"label": "uint256",
						"numberOfBytes": "32"
					}
				}
			},
			"userdoc": {
				"kind": "user",
				"methods": {},
				"version": 1
			}
		}
	}
}