{
	"voting contract/voting.sol": {
		"voting": {
			"abi": [
				{
					"inputs": [],
					"name": "hlo",
					"outputs": [],
					"stateMutability": "nonpayable",
					"type": "function"
				}
			],
			"devdoc": {
				"kind": "dev",
				"methods": {},
				"version": 1
			},
			"evm": {
				"assembly": "    /* \"voting contract/voting.sol\":60:233  contract voting{\r... */\n  mstore(0x40, 0x80)\n  callvalue\n  dup1\n  iszero\n  tag_1\n  jumpi\n  0x00\n  dup1\n  revert\ntag_1:\n  pop\n  dataSize(sub_0)\n  dup1\n  dataOffset(sub_0)\n  0x00\n  codecopy\n  0x00\n  return\nstop\n\nsub_0: assembly {\n        /* \"voting contract/voting.sol\":60:233  contract voting{\r... */\n      mstore(0x40, 0x80)\n      callvalue\n      dup1\n      iszero\n      tag_1\n      jumpi\n      0x00\n      dup1\n      revert\n    tag_1:\n      pop\n      jumpi(tag_2, lt(calldatasize, 0x04))\n      shr(0xe0, calldataload(0x00))\n      dup1\n      0xf7a58a4b\n      eq\n      tag_3\n      jumpi\n    tag_2:\n      0x00\n      dup1\n      revert\n        /* \"voting contract/voting.sol\":126:230  function hlo() public {\r... */\n    tag_3:\n      tag_4\n      tag_5\n      jump\t// in\n    tag_4:\n      stop\n    tag_5:\n        /* \"voting contract/voting.sol\":182:224  0x17F6AD8Ef982297579C203069C1DbfFE4348c372 */\n      0x17f6ad8ef982297579c203069c1dbffe4348c372\n        /* \"voting contract/voting.sol\":155:166  participant */\n      0x00\n        /* \"voting contract/voting.sol\":155:177  participant[\"narendr\"] */\n      mload(0x40)\n      tag_7\n      swap1\n      tag_8\n      jump\t// in\n    tag_7:\n      swap1\n      dup2\n      mstore\n      0x20\n      add\n      mload(0x40)\n      dup1\n      swap2\n      sub\n      swap1\n      keccak256\n      0x00\n        /* \"voting contract/voting.sol\":155:224  participant[\"narendr\"]   = 0x17F6AD8Ef982297579C203069C1DbfFE4348c372 */\n      0x0100\n      exp\n      dup2\n      sload\n      dup2\n      0xffffffffffffffffffffffffffffffffffffffff\n      mul\n      not\n      and\n      swap1\n      dup4\n      0xffffffffffffffffffffffffffffffffffffffff\n      and\n      mul\n      or\n      swap1\n      sstore\n      pop\n        /* \"voting contract/voting.sol\":126:230  function hlo() public {\r... */\n      jump\t// out\n        /* \"#utility.yul\":7:407   */\n    tag_10:\n        /* \"#utility.yul\":167:170   */\n      0x00\n        /* \"#utility.yul\":188:272   */\n      tag_12\n        /* \"#utility.yul\":270:271   */\n      0x07\n        /* \"#utility.yul\":265:268   */\n      dup4\n        /* \"#utility.yul\":188:272   */\n      tag_13\n      jump\t// in\n    tag_12:\n        /* \"#utility.yul\":181:272   */\n      swap2\n      pop\n        /* \"#utility.yul\":281:374   */\n      tag_14\n        /* \"#utility.yul\":370:373   */\n      dup3\n        /* \"#utility.yul\":281:374   */\n      tag_15\n      jump\t// in\n    tag_14:\n        /* \"#utility.yul\":399:400   */\n      0x07\n        /* \"#utility.yul\":394:397   */\n      dup3\n        /* \"#utility.yul\":390:401   */\n      add\n        /* \"#utility.yul\":383:401   */\n      swap1\n      pop\n        /* \"#utility.yul\":7:407   */\n      swap2\n      swap1\n      pop\n      jump\t// out\n        /* \"#utility.yul\":413:794   */\n    tag_8:\n        /* \"#utility.yul\":598:601   */\n      0x00\n        /* \"#utility.yul\":620:768   */\n      tag_17\n        /* \"#utility.yul\":764:767   */\n      dup3\n        /* \"#utility.yul\":620:768   */\n      tag_10\n      jump\t// in\n    tag_17:\n        /* \"#utility.yul\":613:768   */\n      swap2\n      pop\n        /* \"#utility.yul\":785:788   */\n      dup2\n        /* \"#utility.yul\":778:788   */\n      swap1\n      pop\n        /* \"#utility.yul\":413:794   */\n      swap2\n      swap1\n      pop\n      jump\t// out\n        /* \"#utility.yul\":800:948   */\n    tag_13:\n        /* \"#utility.yul\":902:913   */\n      0x00\n        /* \"#utility.yul\":939:942   */\n      dup2\n        /* \"#utility.yul\":924:942   */\n      swap1\n      pop\n        /* \"#utility.yul\":800:948   */\n      swap3\n      swap2\n      pop\n      pop\n      jump\t// out\n        /* \"#utility.yul\":954:1111   */\n    tag_15:\n        /* \"#utility.yul\":1094:1103   */\n      0x6e6172656e647200000000000000000000000000000000000000000000000000\n        /* \"#utility.yul\":1090:1091   */\n      0x00\n        /* \"#utility.yul\":1082:1088   */\n      dup3\n        /* \"#utility.yul\":1078:1092   */\n      add\n        /* \"#utility.yul\":1071:1104   */\n      mstore\n        /* \"#utility.yul\":954:1111   */\n      pop\n      jump\t// out\n\n    auxdata: 0xa2646970667358221220292282ff73f5a70c767bc0e0982251ceb89b56b924f9ad8f9939e668a108123664736f6c63430008070033\n}\n",
				"bytecode": {
					"linkReferences": {},
					"object": "608060405234801561001057600080fd5b5061014d806100206000396000f3fe608060405234801561001057600080fd5b506004361061002b5760003560e01c8063f7a58a4b14610030575b600080fd5b61003861003a565b005b7317f6ad8ef982297579c203069c1dbffe4348c372600060405161005d906100ce565b908152602001604051809103902060006101000a81548173ffffffffffffffffffffffffffffffffffffffff021916908373ffffffffffffffffffffffffffffffffffffffff160217905550565b60006100b86007836100e3565b91506100c3826100ee565b600782019050919050565b60006100d9826100ab565b9150819050919050565b600081905092915050565b7f6e6172656e64720000000000000000000000000000000000000000000000000060008201525056fea2646970667358221220292282ff73f5a70c767bc0e0982251ceb89b56b924f9ad8f9939e668a108123664736f6c63430008070033",
					"opcodes": "PUSH1 0x80 PUSH1 0x40 MSTORE CALLVALUE DUP1 ISZERO PUSH2 0x10 JUMPI PUSH1 0x0 DUP1 REVERT JUMPDEST POP PUSH2 0x14D DUP1 PUSH2 0x20 PUSH1 0x0 CODECOPY PUSH1 0x0 RETURN INVALID PUSH1 0x80 PUSH1 0x40 MSTORE CALLVALUE DUP1 ISZERO PUSH2 0x10 JUMPI PUSH1 0x0 DUP1 REVERT JUMPDEST POP PUSH1 0x4 CALLDATASIZE LT PUSH2 0x2B JUMPI PUSH1 0x0 CALLDATALOAD PUSH1 0xE0 SHR DUP1 PUSH4 0xF7A58A4B EQ PUSH2 0x30 JUMPI JUMPDEST PUSH1 0x0 DUP1 REVERT JUMPDEST PUSH2 0x38 PUSH2 0x3A JUMP JUMPDEST STOP JUMPDEST PUSH20 0x17F6AD8EF982297579C203069C1DBFFE4348C372 PUSH1 0x0 PUSH1 0x40 MLOAD PUSH2 0x5D SWAP1 PUSH2 0xCE JUMP JUMPDEST SWAP1 DUP2 MSTORE PUSH1 0x20 ADD PUSH1 0x40 MLOAD DUP1 SWAP2 SUB SWAP1 KECCAK256 PUSH1 0x0 PUSH2 0x100 EXP DUP2 SLOAD DUP2 PUSH20 0xFFFFFFFFFFFFFFFFFFFFFFFFFFFFFFFFFFFFFFFF MUL NOT AND SWAP1 DUP4 PUSH20 0xFFFFFFFFFFFFFFFFFFFFFFFFFFFFFFFFFFFFFFFF AND MUL OR SWAP1 SSTORE POP JUMP JUMPDEST PUSH1 0x0 PUSH2 0xB8 PUSH1 0x7 DUP4 PUSH2 0xE3 JUMP JUMPDEST SWAP2 POP PUSH2 0xC3 DUP3 PUSH2 0xEE JUMP JUMPDEST PUSH1 0x7 DUP3 ADD SWAP1 POP SWAP2 SWAP1 POP JUMP JUMPDEST PUSH1 0x0 PUSH2 0xD9 DUP3 PUSH2 0xAB JUMP JUMPDEST SWAP2 POP DUP2 SWAP1 POP SWAP2 SWAP1 POP JUMP JUMPDEST PUSH1 0x0 DUP2 SWAP1 POP SWAP3 SWAP2 POP POP JUMP JUMPDEST PUSH32 0x6E6172656E647200000000000000000000000000000000000000000000000000 PUSH1 0x0 DUP3 ADD MSTORE POP JUMP INVALID LOG2 PUSH5 0x6970667358 0x22 SLT KECCAK256 0x29 0x22 DUP3 SELFDESTRUCT PUSH20 0xF5A70C767BC0E0982251CEB89B56B924F9AD8F99 CODECOPY 0xE6 PUSH9 0xA108123664736F6C63 NUMBER STOP ADDMOD SMOD STOP CALLER "
				},
				"gasEstimates": {
					"creation": {
						"codeDepositCost": "66600",
						"executionCost": "117",
						"totalCost": "66717"
					},
					"external": {
						"hlo()": "24682"
					}
				},
				"methodIdentifiers": {
					"hlo()": "f7a58a4b"
				}
			},
			"storageLayout": {
				"storage": [
					{
						"astId": 5,
						"contract": "voting contract/voting.sol:voting",
						"label": "participant",
						"offset": 0,
						"slot": "0",
						"type": "t_mapping(t_string_memory_ptr,t_address)"
					}
				],
				"types": {
					"t_address": {
						"encoding": "inplace",
						"label": "address",
						"numberOfBytes": "20"
					},
					"t_mapping(t_string_memory_ptr,t_address)": {
						"encoding": "mapping",
						"key": "t_string_memory_ptr",
						"label": "mapping(string => address)",
						"numberOfBytes": "32",
						"value": "t_address"
					},
					"t_string_memory_ptr": {
						"encoding": "bytes",
						"label": "string",
						"numberOfBytes": "32"
					}
				}
			},
			"userdoc": {
				"kind": "user",
				"methods": {},
				"version": 1
			}
		}
	}
}