{
	"voting contract/voting.sol": {
		"voting": {
			"abi": [
				{
					"inputs": [],
					"name": "get",
					"outputs": [
						{
							"internalType": "address",
							"name": "",
							"type": "address"
						}
					],
					"stateMutability": "nonpayable",
					"type": "function"
				},
				{
					"inputs": [],
					"name": "hlo",
					"outputs": [],
					"stateMutability": "nonpayable",
					"type": "function"
				}
			],
			"devdoc": {
				"kind": "dev",
				"methods": {},
				"version": 1
			},
			"evm": {
				"assembly": "    /* \"voting contract/voting.sol\":60:324  contract voting{\r... */\n  mstore(0x40, 0x80)\n  callvalue\n  dup1\n  iszero\n  tag_1\n  jumpi\n  0x00\n  dup1\n  revert\ntag_1:\n  pop\n  dataSize(sub_0)\n  dup1\n  dataOffset(sub_0)\n  0x00\n  codecopy\n  0x00\n  return\nstop\n\nsub_0: assembly {\n        /* \"voting contract/voting.sol\":60:324  contract voting{\r... */\n      mstore(0x40, 0x80)\n      callvalue\n      dup1\n      iszero\n      tag_1\n      jumpi\n      0x00\n      dup1\n      revert\n    tag_1:\n      pop\n      jumpi(tag_2, lt(calldatasize, 0x04))\n      shr(0xe0, calldataload(0x00))\n      dup1\n      0x6d4ce63c\n      eq\n      tag_3\n      jumpi\n      dup1\n      0xf7a58a4b\n      eq\n      tag_4\n      jumpi\n    tag_2:\n      0x00\n      dup1\n      revert\n        /* \"voting contract/voting.sol\":233:321  function get() public  returns(address) {\r... */\n    tag_3:\n      tag_5\n      tag_6\n      jump\t// in\n    tag_5:\n      mload(0x40)\n      tag_7\n      swap2\n      swap1\n      tag_8\n      jump\t// in\n    tag_7:\n      mload(0x40)\n      dup1\n      swap2\n      sub\n      swap1\n      return\n        /* \"voting contract/voting.sol\":126:227  function hlo() public {\r... */\n    tag_4:\n      tag_9\n      tag_10\n      jump\t// in\n    tag_9:\n      stop\n        /* \"voting contract/voting.sol\":233:321  function get() public  returns(address) {\r... */\n    tag_6:\n        /* \"voting contract/voting.sol\":264:271  address */\n      0x00\n        /* \"voting contract/voting.sol\":291:302  participant */\n      dup1\n        /* \"voting contract/voting.sol\":291:313  participant[\"narendr\"] */\n      mload(0x40)\n      tag_12\n      swap1\n      tag_13\n      jump\t// in\n    tag_12:\n      swap1\n      dup2\n      mstore\n      0x20\n      add\n      mload(0x40)\n      dup1\n      swap2\n      sub\n      swap1\n      keccak256\n      0x00\n      swap1\n      sload\n      swap1\n      0x0100\n      exp\n      swap1\n      div\n      0xffffffffffffffffffffffffffffffffffffffff\n      and\n        /* \"voting contract/voting.sol\":284:313  return participant[\"narendr\"] */\n      swap1\n      pop\n        /* \"voting contract/voting.sol\":233:321  function get() public  returns(address) {\r... */\n      swap1\n      jump\t// out\n        /* \"voting contract/voting.sol\":126:227  function hlo() public {\r... */\n    tag_10:\n        /* \"voting contract/voting.sol\":179:221  0x17F6AD8Ef982297579C203069C1DbfFE4348c372 */\n      0x17f6ad8ef982297579c203069c1dbffe4348c372\n        /* \"voting contract/voting.sol\":155:166  participant */\n      0x00\n        /* \"voting contract/voting.sol\":155:177  participant[\"narendr\"] */\n      mload(0x40)\n      tag_15\n      swap1\n      tag_13\n      jump\t// in\n    tag_15:\n      swap1\n      dup2\n      mstore\n      0x20\n      add\n      mload(0x40)\n      dup1\n      swap2\n      sub\n      swap1\n      keccak256\n      0x00\n        /* \"voting contract/voting.sol\":155:221  participant[\"narendr\"]= 0x17F6AD8Ef982297579C203069C1DbfFE4348c372 */\n      0x0100\n      exp\n      dup2\n      sload\n      dup2\n      0xffffffffffffffffffffffffffffffffffffffff\n      mul\n      not\n      and\n      swap1\n      dup4\n      0xffffffffffffffffffffffffffffffffffffffff\n      and\n      mul\n      or\n      swap1\n      sstore\n      pop\n        /* \"voting contract/voting.sol\":126:227  function hlo() public {\r... */\n      jump\t// out\n        /* \"#utility.yul\":7:125   */\n    tag_17:\n        /* \"#utility.yul\":94:118   */\n      tag_19\n        /* \"#utility.yul\":112:117   */\n      dup2\n        /* \"#utility.yul\":94:118   */\n      tag_20\n      jump\t// in\n    tag_19:\n        /* \"#utility.yul\":89:92   */\n      dup3\n        /* \"#utility.yul\":82:119   */\n      mstore\n        /* \"#utility.yul\":7:125   */\n      pop\n      pop\n      jump\t// out\n        /* \"#utility.yul\":131:531   */\n    tag_21:\n        /* \"#utility.yul\":291:294   */\n      0x00\n        /* \"#utility.yul\":312:396   */\n      tag_23\n        /* \"#utility.yul\":394:395   */\n      0x07\n        /* \"#utility.yul\":389:392   */\n      dup4\n        /* \"#utility.yul\":312:396   */\n      tag_24\n      jump\t// in\n    tag_23:\n        /* \"#utility.yul\":305:396   */\n      swap2\n      pop\n        /* \"#utility.yul\":405:498   */\n      tag_25\n        /* \"#utility.yul\":494:497   */\n      dup3\n        /* \"#utility.yul\":405:498   */\n      tag_26\n      jump\t// in\n    tag_25:\n        /* \"#utility.yul\":523:524   */\n      0x07\n        /* \"#utility.yul\":518:521   */\n      dup3\n        /* \"#utility.yul\":514:525   */\n      add\n        /* \"#utility.yul\":507:525   */\n      swap1\n      pop\n        /* \"#utility.yul\":131:531   */\n      swap2\n      swap1\n      pop\n      jump\t// out\n        /* \"#utility.yul\":537:918   */\n    tag_13:\n        /* \"#utility.yul\":722:725   */\n      0x00\n        /* \"#utility.yul\":744:892   */\n      tag_28\n        /* \"#utility.yul\":888:891   */\n      dup3\n        /* \"#utility.yul\":744:892   */\n      tag_21\n      jump\t// in\n    tag_28:\n        /* \"#utility.yul\":737:892   */\n      swap2\n      pop\n        /* \"#utility.yul\":909:912   */\n      dup2\n        /* \"#utility.yul\":902:912   */\n      swap1\n      pop\n        /* \"#utility.yul\":537:918   */\n      swap2\n      swap1\n      pop\n      jump\t// out\n        /* \"#utility.yul\":924:1146   */\n    tag_8:\n        /* \"#utility.yul\":1017:1021   */\n      0x00\n        /* \"#utility.yul\":1055:1057   */\n      0x20\n        /* \"#utility.yul\":1044:1053   */\n      dup3\n        /* \"#utility.yul\":1040:1058   */\n      add\n        /* \"#utility.yul\":1032:1058   */\n      swap1\n      pop\n        /* \"#utility.yul\":1068:1139   */\n      tag_30\n        /* \"#utility.yul\":1136:1137   */\n      0x00\n        /* \"#utility.yul\":1125:1134   */\n      dup4\n        /* \"#utility.yul\":1121:1138   */\n      add\n        /* \"#utility.yul\":1112:1118   */\n      dup5\n        /* \"#utility.yul\":1068:1139   */\n      tag_17\n      jump\t// in\n    tag_30:\n        /* \"#utility.yul\":924:1146   */\n      swap3\n      swap2\n      pop\n      pop\n      jump\t// out\n        /* \"#utility.yul\":1152:1300   */\n    tag_24:\n        /* \"#utility.yul\":1254:1265   */\n      0x00\n        /* \"#utility.yul\":1291:1294   */\n      dup2\n        /* \"#utility.yul\":1276:1294   */\n      swap1\n      pop\n        /* \"#utility.yul\":1152:1300   */\n      swap3\n      swap2\n      pop\n      pop\n      jump\t// out\n        /* \"#utility.yul\":1306:1402   */\n    tag_20:\n        /* \"#utility.yul\":1343:1350   */\n      0x00\n        /* \"#utility.yul\":1372:1396   */\n      tag_33\n        /* \"#utility.yul\":1390:1395   */\n      dup3\n        /* \"#utility.yul\":1372:1396   */\n      tag_34\n      jump\t// in\n    tag_33:\n        /* \"#utility.yul\":1361:1396   */\n      swap1\n      pop\n        /* \"#utility.yul\":1306:1402   */\n      swap2\n      swap1\n      pop\n      jump\t// out\n        /* \"#utility.yul\":1408:1534   */\n    tag_34:\n        /* \"#utility.yul\":1445:1452   */\n      0x00\n        /* \"#utility.yul\":1485:1527   */\n      0xffffffffffffffffffffffffffffffffffffffff\n        /* \"#utility.yul\":1478:1483   */\n      dup3\n        /* \"#utility.yul\":1474:1528   */\n      and\n        /* \"#utility.yul\":1463:1528   */\n      swap1\n      pop\n        /* \"#utility.yul\":1408:1534   */\n      swap2\n      swap1\n      pop\n      jump\t// out\n        /* \"#utility.yul\":1540:1697   */\n    tag_26:\n        /* \"#utility.yul\":1680:1689   */\n      0x6e6172656e647200000000000000000000000000000000000000000000000000\n        /* \"#utility.yul\":1676:1677   */\n      0x00\n        /* \"#utility.yul\":1668:1674   */\n      dup3\n        /* \"#utility.yul\":1664:1678   */\n      add\n        /* \"#utility.yul\":1657:1690   */\n      mstore\n        /* \"#utility.yul\":1540:1697   */\n      pop\n      jump\t// out\n\n    auxdata: 0xa2646970667358221220fdc69029a72e1ee560c71e68fbe6ae9978962ba5959246af84cc7c62481dd3c064736f6c63430008070033\n}\n",
				"bytecode": {
					"linkReferences": {},
					"object": "608060405234801561001057600080fd5b50610215806100206000396000f3fe608060405234801561001057600080fd5b50600436106100365760003560e01c80636d4ce63c1461003b578063f7a58a4b14610059575b600080fd5b610043610063565b604051610050919061015e565b60405180910390f35b6100616100a6565b005b60008060405161007290610149565b908152602001604051809103902060009054906101000a900473ffffffffffffffffffffffffffffffffffffffff16905090565b7317f6ad8ef982297579c203069c1dbffe4348c37260006040516100c990610149565b908152602001604051809103902060006101000a81548173ffffffffffffffffffffffffffffffffffffffff021916908373ffffffffffffffffffffffffffffffffffffffff160217905550565b61012081610184565b82525050565b6000610133600783610179565b915061013e826101b6565b600782019050919050565b600061015482610126565b9150819050919050565b60006020820190506101736000830184610117565b92915050565b600081905092915050565b600061018f82610196565b9050919050565b600073ffffffffffffffffffffffffffffffffffffffff82169050919050565b7f6e6172656e64720000000000000000000000000000000000000000000000000060008201525056fea2646970667358221220fdc69029a72e1ee560c71e68fbe6ae9978962ba5959246af84cc7c62481dd3c064736f6c63430008070033",
					"opcodes": "PUSH1 0x80 PUSH1 0x40 MSTORE CALLVALUE DUP1 ISZERO PUSH2 0x10 JUMPI PUSH1 0x0 DUP1 REVERT JUMPDEST POP PUSH2 0x215 DUP1 PUSH2 0x20 PUSH1 0x0 CODECOPY PUSH1 0x0 RETURN INVALID PUSH1 0x80 PUSH1 0x40 MSTORE CALLVALUE DUP1 ISZERO PUSH2 0x10 JUMPI PUSH1 0x0 DUP1 REVERT JUMPDEST POP PUSH1 0x4 CALLDATASIZE LT PUSH2 0x36 JUMPI PUSH1 0x0 CALLDATALOAD PUSH1 0xE0 SHR DUP1 PUSH4 0x6D4CE63C EQ PUSH2 0x3B JUMPI DUP1 PUSH4 0xF7A58A4B EQ PUSH2 0x59 JUMPI JUMPDEST PUSH1 0x0 DUP1 REVERT JUMPDEST PUSH2 0x43 PUSH2 0x63 JUMP JUMPDEST PUSH1 0x40 MLOAD PUSH2 0x50 SWAP2 SWAP1 PUSH2 0x15E JUMP JUMPDEST PUSH1 0x40 MLOAD DUP1 SWAP2 SUB SWAP1 RETURN JUMPDEST PUSH2 0x61 PUSH2 0xA6 JUMP JUMPDEST STOP JUMPDEST PUSH1 0x0 DUP1 PUSH1 0x40 MLOAD PUSH2 0x72 SWAP1 PUSH2 0x149 JUMP JUMPDEST SWAP1 DUP2 MSTORE PUSH1 0x20 ADD PUSH1 0x40 MLOAD DUP1 SWAP2 SUB SWAP1 KECCAK256 PUSH1 0x0 SWAP1 SLOAD SWAP1 PUSH2 0x100 EXP SWAP1 DIV PUSH20 0xFFFFFFFFFFFFFFFFFFFFFFFFFFFFFFFFFFFFFFFF AND SWAP1 POP SWAP1 JUMP JUMPDEST PUSH20 0x17F6AD8EF982297579C203069C1DBFFE4348C372 PUSH1 0x0 PUSH1 0x40 MLOAD PUSH2 0xC9 SWAP1 PUSH2 0x149 JUMP JUMPDEST SWAP1 DUP2 MSTORE PUSH1 0x20 ADD PUSH1 0x40 MLOAD DUP1 SWAP2 SUB SWAP1 KECCAK256 PUSH1 0x0 PUSH2 0x100 EXP DUP2 SLOAD DUP2 PUSH20 0xFFFFFFFFFFFFFFFFFFFFFFFFFFFFFFFFFFFFFFFF MUL NOT AND SWAP1 DUP4 PUSH20 0xFFFFFFFFFFFFFFFFFFFFFFFFFFFFFFFFFFFFFFFF AND MUL OR SWAP1 SSTORE POP JUMP JUMPDEST PUSH2 0x120 DUP2 PUSH2 0x184 JUMP JUMPDEST DUP3 MSTORE POP POP JUMP JUMPDEST PUSH1 0x0 PUSH2 0x133 PUSH1 0x7 DUP4 PUSH2 0x179 JUMP JUMPDEST SWAP2 POP PUSH2 0x13E DUP3 PUSH2 0x1B6 JUMP JUMPDEST PUSH1 0x7 DUP3 ADD SWAP1 POP SWAP2 SWAP1 POP JUMP JUMPDEST PUSH1 0x0 PUSH2 0x154 DUP3 PUSH2 0x126 JUMP JUMPDEST SWAP2 POP DUP2 SWAP1 POP SWAP2 SWAP1 POP JUMP JUMPDEST PUSH1 0x0 PUSH1 0x20 DUP3 ADD SWAP1 POP PUSH2 0x173 PUSH1 0x0 DUP4 ADD DUP5 PUSH2 0x117 JUMP JUMPDEST SWAP3 SWAP2 POP POP JUMP JUMPDEST PUSH1 0x0 DUP2 SWAP1 POP SWAP3 SWAP2 POP POP JUMP JUMPDEST PUSH1 0x0 PUSH2 0x18F DUP3 PUSH2 0x196 JUMP JUMPDEST SWAP1 POP SWAP2 SWAP1 POP JUMP JUMPDEST PUSH1 0x0 PUSH20 0xFFFFFFFFFFFFFFFFFFFFFFFFFFFFFFFFFFFFFFFF DUP3 AND SWAP1 POP SWAP2 SWAP1 POP JUMP JUMPDEST PUSH32 0x6E6172656E647200000000000000000000000000000000000000000000000000 PUSH1 0x0 DUP3 ADD MSTORE POP JUMP INVALID LOG2 PUSH5 0x6970667358 0x22 SLT KECCAK256 REVERT 0xC6 SWAP1 0x29 0xA7 0x2E 0x1E 0xE5 PUSH1 0xC7 0x1E PUSH9 0xFBE6AE9978962BA595 SWAP3 CHAINID 0xAF DUP5 0xCC PUSH29 0x62481DD3C064736F6C6343000807003300000000000000000000000000 "
				},
				"gasEstimates": {
					"creation": {
						"codeDepositCost": "106600",
						"executionCost": "153",
						"totalCost": "106753"
					},
					"external": {
						"get()": "2787",
						"hlo()": "24704"
					}
				},
				"methodIdentifiers": {
					"get()": "6d4ce63c",
					"hlo()": "f7a58a4b"
				}
			},
			"storageLayout": {
				"storage": [
					{
						"astId": 5,
						"contract": "voting contract/voting.sol:voting",
						"label": "participant",
						"offset": 0,
						"slot": "0",
						"type": "t_mapping(t_string_memory_ptr,t_address)"
					}
				],
				"types": {
					"t_address": {
						"encoding": "inplace",
						"label": "address",
						"numberOfBytes": "20"
					},
					"t_mapping(t_string_memory_ptr,t_address)": {
						"encoding": "mapping",
						"key": "t_string_memory_ptr",
						"label": "mapping(string => address)",
						"numberOfBytes": "32",
						"value": "t_address"
					},
					"t_string_memory_ptr": {
						"encoding": "bytes",
						"label": "string",
						"numberOfBytes": "32"
					}
				}
			},
			"userdoc": {
				"kind": "user",
				"methods": {},
				"version": 1
			}
		}
	}
}