{
	"erc20 contract/tok.sol": {
		"token": {
			"abi": [
				{
					"inputs": [],
					"stateMutability": "nonpayable",
					"type": "constructor"
				},
				{
					"inputs": [
						{
							"internalType": "address",
							"name": "account",
							"type": "address"
						}
					],
					"name": "balanceof",
					"outputs": [
						{
							"internalType": "uint256",
							"name": "",
							"type": "uint256"
						}
					],
					"stateMutability": "view",
					"type": "function"
				},
				{
					"inputs": [],
					"name": "name",
					"outputs": [
						{
							"internalType": "string",
							"name": "",
							"type": "string"
						}
					],
					"stateMutability": "view",
					"type": "function"
				},
				{
					"inputs": [],
					"name": "owner",
					"outputs": [
						{
							"internalType": "address",
							"name": "",
							"type": "address"
						}
					],
					"stateMutability": "view",
					"type": "function"
				},
				{
					"inputs": [],
					"name": "symbol",
					"outputs": [
						{
							"internalType": "string",
							"name": "",
							"type": "string"
						}
					],
					"stateMutability": "view",
					"type": "function"
				},
				{
					"inputs": [],
					"name": "totalsupply",
					"outputs": [
						{
							"internalType": "uint256",
							"name": "",
							"type": "uint256"
						}
					],
					"stateMutability": "view",
					"type": "function"
				},
				{
					"inputs": [
						{
							"internalType": "address",
							"name": "to",
							"type": "address"
						},
						{
							"internalType": "uint256",
							"name": "amount",
							"type": "uint256"
						}
					],
					"name": "transfer",
					"outputs": [],
					"stateMutability": "nonpayable",
					"type": "function"
				}
			],
			"devdoc": {
				"kind": "dev",
				"methods": {},
				"version": 1
			},
			"evm": {
				"assembly": "    /* \"erc20 contract/tok.sol\":74:658  contract token{\r... */\n  mstore(0x40, 0x80)\n    /* \"erc20 contract/tok.sol\":95:128  string public name=\"hardhattoken\" */\n  mload(0x40)\n  dup1\n  0x40\n  add\n  0x40\n  mstore\n  dup1\n  0x0c\n  dup2\n  mstore\n  0x20\n  add\n  0x68617264686174746f6b656e0000000000000000000000000000000000000000\n  dup2\n  mstore\n  pop\n  0x00\n  swap1\n  dup1\n  mload\n  swap1\n  0x20\n  add\n  swap1\n  tag_1\n  swap3\n  swap2\n  swap1\n  tag_2\n  jump\t// in\ntag_1:\n  pop\n    /* \"erc20 contract/tok.sol\":135:162  string public symbol =\"hht\" */\n  mload(0x40)\n  dup1\n  0x40\n  add\n  0x40\n  mstore\n  dup1\n  0x03\n  dup2\n  mstore\n  0x20\n  add\n  0x6868740000000000000000000000000000000000000000000000000000000000\n  dup2\n  mstore\n  pop\n  0x01\n  swap1\n  dup1\n  mload\n  swap1\n  0x20\n  add\n  swap1\n  tag_3\n  swap3\n  swap2\n  swap1\n  tag_2\n  jump\t// in\ntag_3:\n  pop\n    /* \"erc20 contract/tok.sol\":195:200  10000 */\n  0x2710\n    /* \"erc20 contract/tok.sol\":169:200  uint  public totalsupply =10000 */\n  0x02\n  sstore\n    /* \"erc20 contract/tok.sol\":275:359  constructor() {\r... */\n  callvalue\n  dup1\n  iszero\n  tag_4\n  jumpi\n  0x00\n  dup1\n  revert\ntag_4:\n  pop\n    /* \"erc20 contract/tok.sol\":319:330  totalsupply */\n  sload(0x02)\n    /* \"erc20 contract/tok.sol\":296:304  balances */\n  0x04\n    /* \"erc20 contract/tok.sol\":296:316  balances[msg.sender] */\n  0x00\n    /* \"erc20 contract/tok.sol\":305:315  msg.sender */\n  caller\n    /* \"erc20 contract/tok.sol\":296:316  balances[msg.sender] */\n  0xffffffffffffffffffffffffffffffffffffffff\n  and\n  0xffffffffffffffffffffffffffffffffffffffff\n  and\n  dup2\n  mstore\n  0x20\n  add\n  swap1\n  dup2\n  mstore\n  0x20\n  add\n  0x00\n  keccak256\n    /* \"erc20 contract/tok.sol\":296:330  balances[msg.sender] = totalsupply */\n  dup2\n  swap1\n  sstore\n  pop\n    /* \"erc20 contract/tok.sol\":343:353  msg.sender */\n  caller\n    /* \"erc20 contract/tok.sol\":337:342  owner */\n  0x03\n  0x00\n    /* \"erc20 contract/tok.sol\":337:353  owner=msg.sender */\n  0x0100\n  exp\n  dup2\n  sload\n  dup2\n  0xffffffffffffffffffffffffffffffffffffffff\n  mul\n  not\n  and\n  swap1\n  dup4\n  0xffffffffffffffffffffffffffffffffffffffff\n  and\n  mul\n  or\n  swap1\n  sstore\n  pop\n    /* \"erc20 contract/tok.sol\":74:658  contract token{\r... */\n  jump(tag_7)\ntag_2:\n  dup3\n  dup1\n  sload\n  tag_8\n  swap1\n  tag_9\n  jump\t// in\ntag_8:\n  swap1\n  0x00\n  mstore\n  keccak256(0x00, 0x20)\n  swap1\n  0x1f\n  add\n  0x20\n  swap1\n  div\n  dup2\n  add\n  swap3\n  dup3\n  tag_11\n  jumpi\n  0x00\n  dup6\n  sstore\n  jump(tag_10)\ntag_11:\n  dup3\n  0x1f\n  lt\n  tag_12\n  jumpi\n  dup1\n  mload\n  not(0xff)\n  and\n  dup4\n  dup1\n  add\n  or\n  dup6\n  sstore\n  jump(tag_10)\ntag_12:\n  dup3\n  dup1\n  add\n  0x01\n  add\n  dup6\n  sstore\n  dup3\n  iszero\n  tag_10\n  jumpi\n  swap2\n  dup3\n  add\ntag_13:\n  dup3\n  dup2\n  gt\n  iszero\n  tag_14\n  jumpi\n  dup3\n  mload\n  dup3\n  sstore\n  swap2\n  0x20\n  add\n  swap2\n  swap1\n  0x01\n  add\n  swap1\n  jump(tag_13)\ntag_14:\ntag_10:\n  pop\n  swap1\n  pop\n  tag_15\n  swap2\n  swap1\n  tag_16\n  jump\t// in\ntag_15:\n  pop\n  swap1\n  jump\t// out\ntag_16:\ntag_17:\n  dup1\n  dup3\n  gt\n  iszero\n  tag_18\n  jumpi\n  0x00\n  dup2\n  0x00\n  swap1\n  sstore\n  pop\n  0x01\n  add\n  jump(tag_17)\ntag_18:\n  pop\n  swap1\n  jump\t// out\n    /* \"#utility.yul\":7:327   */\ntag_9:\n  0x00\n    /* \"#utility.yul\":88:89   */\n  0x02\n    /* \"#utility.yul\":82:86   */\n  dup3\n    /* \"#utility.yul\":78:90   */\n  div\n    /* \"#utility.yul\":68:90   */\n  swap1\n  pop\n    /* \"#utility.yul\":135:136   */\n  0x01\n    /* \"#utility.yul\":129:133   */\n  dup3\n    /* \"#utility.yul\":125:137   */\n  and\n    /* \"#utility.yul\":156:174   */\n  dup1\n    /* \"#utility.yul\":146:148   */\n  tag_21\n  jumpi\n    /* \"#utility.yul\":212:216   */\n  0x7f\n    /* \"#utility.yul\":204:210   */\n  dup3\n    /* \"#utility.yul\":200:217   */\n  and\n    /* \"#utility.yul\":190:217   */\n  swap2\n  pop\n    /* \"#utility.yul\":146:148   */\ntag_21:\n    /* \"#utility.yul\":274:276   */\n  0x20\n    /* \"#utility.yul\":266:272   */\n  dup3\n    /* \"#utility.yul\":263:277   */\n  lt\n    /* \"#utility.yul\":243:261   */\n  dup2\n    /* \"#utility.yul\":240:278   */\n  eq\n    /* \"#utility.yul\":237:239   */\n  iszero\n  tag_22\n  jumpi\n    /* \"#utility.yul\":293:311   */\n  tag_23\n  tag_24\n  jump\t// in\ntag_23:\n    /* \"#utility.yul\":237:239   */\ntag_22:\n    /* \"#utility.yul\":58:327   */\n  pop\n  swap2\n  swap1\n  pop\n  jump\t// out\n    /* \"#utility.yul\":333:513   */\ntag_24:\n    /* \"#utility.yul\":381:458   */\n  0x4e487b7100000000000000000000000000000000000000000000000000000000\n    /* \"#utility.yul\":378:379   */\n  0x00\n    /* \"#utility.yul\":371:459   */\n  mstore\n    /* \"#utility.yul\":478:482   */\n  0x22\n    /* \"#utility.yul\":475:476   */\n  0x04\n    /* \"#utility.yul\":468:483   */\n  mstore\n    /* \"#utility.yul\":502:506   */\n  0x24\n    /* \"#utility.yul\":499:500   */\n  0x00\n    /* \"#utility.yul\":492:507   */\n  revert\n    /* \"erc20 contract/tok.sol\":74:658  contract token{\r... */\ntag_7:\n  dataSize(sub_0)\n  dup1\n  dataOffset(sub_0)\n  0x00\n  codecopy\n  0x00\n  return\nstop\n\nsub_0: assembly {\n        /* \"erc20 contract/tok.sol\":74:658  contract token{\r... */\n      mstore(0x40, 0x80)\n      callvalue\n      dup1\n      iszero\n      tag_1\n      jumpi\n      0x00\n      dup1\n      revert\n    tag_1:\n      pop\n      jumpi(tag_2, lt(calldatasize, 0x04))\n      shr(0xe0, calldataload(0x00))\n      dup1\n      0x06fdde03\n      eq\n      tag_3\n      jumpi\n      dup1\n      0x3d64125b\n      eq\n      tag_4\n      jumpi\n      dup1\n      0x72dd529b\n      eq\n      tag_5\n      jumpi\n      dup1\n      0x8da5cb5b\n      eq\n      tag_6\n      jumpi\n      dup1\n      0x95d89b41\n      eq\n      tag_7\n      jumpi\n      dup1\n      0xa9059cbb\n      eq\n      tag_8\n      jumpi\n    tag_2:\n      0x00\n      dup1\n      revert\n        /* \"erc20 contract/tok.sol\":95:128  string public name=\"hardhattoken\" */\n    tag_3:\n      tag_9\n      tag_10\n      jump\t// in\n    tag_9:\n      mload(0x40)\n      tag_11\n      swap2\n      swap1\n      tag_12\n      jump\t// in\n    tag_11:\n      mload(0x40)\n      dup1\n      swap2\n      sub\n      swap1\n      return\n        /* \"erc20 contract/tok.sol\":548:649  function balanceof(address account) external view returns(uint256){\r... */\n    tag_4:\n      tag_13\n      0x04\n      dup1\n      calldatasize\n      sub\n      dup2\n      add\n      swap1\n      tag_14\n      swap2\n      swap1\n      tag_15\n      jump\t// in\n    tag_14:\n      tag_16\n      jump\t// in\n    tag_13:\n      mload(0x40)\n      tag_17\n      swap2\n      swap1\n      tag_18\n      jump\t// in\n    tag_17:\n      mload(0x40)\n      dup1\n      swap2\n      sub\n      swap1\n      return\n        /* \"erc20 contract/tok.sol\":169:200  uint  public totalsupply =10000 */\n    tag_5:\n      tag_19\n      tag_20\n      jump\t// in\n    tag_19:\n      mload(0x40)\n      tag_21\n      swap2\n      swap1\n      tag_18\n      jump\t// in\n    tag_21:\n      mload(0x40)\n      dup1\n      swap2\n      sub\n      swap1\n      return\n        /* \"erc20 contract/tok.sol\":209:229  address public owner */\n    tag_6:\n      tag_22\n      tag_23\n      jump\t// in\n    tag_22:\n      mload(0x40)\n      tag_24\n      swap2\n      swap1\n      tag_25\n      jump\t// in\n    tag_24:\n      mload(0x40)\n      dup1\n      swap2\n      sub\n      swap1\n      return\n        /* \"erc20 contract/tok.sol\":135:162  string public symbol =\"hht\" */\n    tag_7:\n      tag_26\n      tag_27\n      jump\t// in\n    tag_26:\n      mload(0x40)\n      tag_28\n      swap2\n      swap1\n      tag_12\n      jump\t// in\n    tag_28:\n      mload(0x40)\n      dup1\n      swap2\n      sub\n      swap1\n      return\n        /* \"erc20 contract/tok.sol\":361:546  function transfer(address to , uint256 amount) external{\r... */\n    tag_8:\n      tag_29\n      0x04\n      dup1\n      calldatasize\n      sub\n      dup2\n      add\n      swap1\n      tag_30\n      swap2\n      swap1\n      tag_31\n      jump\t// in\n    tag_30:\n      tag_32\n      jump\t// in\n    tag_29:\n      stop\n        /* \"erc20 contract/tok.sol\":95:128  string public name=\"hardhattoken\" */\n    tag_10:\n      0x00\n      dup1\n      sload\n      tag_33\n      swap1\n      tag_34\n      jump\t// in\n    tag_33:\n      dup1\n      0x1f\n      add\n      0x20\n      dup1\n      swap2\n      div\n      mul\n      0x20\n      add\n      mload(0x40)\n      swap1\n      dup2\n      add\n      0x40\n      mstore\n      dup1\n      swap3\n      swap2\n      swap1\n      dup2\n      dup2\n      mstore\n      0x20\n      add\n      dup3\n      dup1\n      sload\n      tag_35\n      swap1\n      tag_34\n      jump\t// in\n    tag_35:\n      dup1\n      iszero\n      tag_36\n      jumpi\n      dup1\n      0x1f\n      lt\n      tag_37\n      jumpi\n      0x0100\n      dup1\n      dup4\n      sload\n      div\n      mul\n      dup4\n      mstore\n      swap2\n      0x20\n      add\n      swap2\n      jump(tag_36)\n    tag_37:\n      dup3\n      add\n      swap2\n      swap1\n      0x00\n      mstore\n      keccak256(0x00, 0x20)\n      swap1\n    tag_38:\n      dup2\n      sload\n      dup2\n      mstore\n      swap1\n      0x01\n      add\n      swap1\n      0x20\n      add\n      dup1\n      dup4\n      gt\n      tag_38\n      jumpi\n      dup3\n      swap1\n      sub\n      0x1f\n      and\n      dup3\n      add\n      swap2\n    tag_36:\n      pop\n      pop\n      pop\n      pop\n      pop\n      dup2\n      jump\t// out\n        /* \"erc20 contract/tok.sol\":548:649  function balanceof(address account) external view returns(uint256){\r... */\n    tag_16:\n        /* \"erc20 contract/tok.sol\":606:613  uint256 */\n      0x00\n        /* \"erc20 contract/tok.sol\":628:636  balances */\n      0x04\n        /* \"erc20 contract/tok.sol\":628:645  balances[account] */\n      0x00\n        /* \"erc20 contract/tok.sol\":637:644  account */\n      dup4\n        /* \"erc20 contract/tok.sol\":628:645  balances[account] */\n      0xffffffffffffffffffffffffffffffffffffffff\n      and\n      0xffffffffffffffffffffffffffffffffffffffff\n      and\n      dup2\n      mstore\n      0x20\n      add\n      swap1\n      dup2\n      mstore\n      0x20\n      add\n      0x00\n      keccak256\n      sload\n        /* \"erc20 contract/tok.sol\":621:645  return balances[account] */\n      swap1\n      pop\n        /* \"erc20 contract/tok.sol\":548:649  function balanceof(address account) external view returns(uint256){\r... */\n      swap2\n      swap1\n      pop\n      jump\t// out\n        /* \"erc20 contract/tok.sol\":169:200  uint  public totalsupply =10000 */\n    tag_20:\n      sload(0x02)\n      dup2\n      jump\t// out\n        /* \"erc20 contract/tok.sol\":209:229  address public owner */\n    tag_23:\n      0x03\n      0x00\n      swap1\n      sload\n      swap1\n      0x0100\n      exp\n      swap1\n      div\n      0xffffffffffffffffffffffffffffffffffffffff\n      and\n      dup2\n      jump\t// out\n        /* \"erc20 contract/tok.sol\":135:162  string public symbol =\"hht\" */\n    tag_27:\n      0x01\n      dup1\n      sload\n      tag_40\n      swap1\n      tag_34\n      jump\t// in\n    tag_40:\n      dup1\n      0x1f\n      add\n      0x20\n      dup1\n      swap2\n      div\n      mul\n      0x20\n      add\n      mload(0x40)\n      swap1\n      dup2\n      add\n      0x40\n      mstore\n      dup1\n      swap3\n      swap2\n      swap1\n      dup2\n      dup2\n      mstore\n      0x20\n      add\n      dup3\n      dup1\n      sload\n      tag_41\n      swap1\n      tag_34\n      jump\t// in\n    tag_41:\n      dup1\n      iszero\n      tag_42\n      jumpi\n      dup1\n      0x1f\n      lt\n      tag_43\n      jumpi\n      0x0100\n      dup1\n      dup4\n      sload\n      div\n      mul\n      dup4\n      mstore\n      swap2\n      0x20\n      add\n      swap2\n      jump(tag_42)\n    tag_43:\n      dup3\n      add\n      swap2\n      swap1\n      0x00\n      mstore\n      keccak256(0x00, 0x20)\n      swap1\n    tag_44:\n      dup2\n      sload\n      dup2\n      mstore\n      swap1\n      0x01\n      add\n      swap1\n      0x20\n      add\n      dup1\n      dup4\n      gt\n      tag_44\n      jumpi\n      dup3\n      swap1\n      sub\n      0x1f\n      and\n      dup3\n      add\n      swap2\n    tag_42:\n      pop\n      pop\n      pop\n      pop\n      pop\n      dup2\n      jump\t// out\n        /* \"erc20 contract/tok.sol\":361:546  function transfer(address to , uint256 amount) external{\r... */\n    tag_32:\n        /* \"erc20 contract/tok.sol\":453:459  amount */\n      dup1\n        /* \"erc20 contract/tok.sol\":431:439  balances */\n      0x04\n        /* \"erc20 contract/tok.sol\":431:451  balances[msg.sender] */\n      0x00\n        /* \"erc20 contract/tok.sol\":440:450  msg.sender */\n      caller\n        /* \"erc20 contract/tok.sol\":431:451  balances[msg.sender] */\n      0xffffffffffffffffffffffffffffffffffffffff\n      and\n      0xffffffffffffffffffffffffffffffffffffffff\n      and\n      dup2\n      mstore\n      0x20\n      add\n      swap1\n      dup2\n      mstore\n      0x20\n      add\n      0x00\n      keccak256\n      sload\n        /* \"erc20 contract/tok.sol\":431:459  balances[msg.sender]>=amount */\n      lt\n      iszero\n        /* \"erc20 contract/tok.sol\":423:480  require(balances[msg.sender]>=amount, \"not enough token\") */\n      tag_46\n      jumpi\n      mload(0x40)\n      0x08c379a000000000000000000000000000000000000000000000000000000000\n      dup2\n      mstore\n      0x04\n      add\n      tag_47\n      swap1\n      tag_48\n      jump\t// in\n    tag_47:\n      mload(0x40)\n      dup1\n      swap2\n      sub\n      swap1\n      revert\n    tag_46:\n        /* \"erc20 contract/tok.sol\":509:515  amount */\n      dup1\n        /* \"erc20 contract/tok.sol\":487:495  balances */\n      0x04\n        /* \"erc20 contract/tok.sol\":487:507  balances[msg.sender] */\n      0x00\n        /* \"erc20 contract/tok.sol\":496:506  msg.sender */\n      caller\n        /* \"erc20 contract/tok.sol\":487:507  balances[msg.sender] */\n      0xffffffffffffffffffffffffffffffffffffffff\n      and\n      0xffffffffffffffffffffffffffffffffffffffff\n      and\n      dup2\n      mstore\n      0x20\n      add\n      swap1\n      dup2\n      mstore\n      0x20\n      add\n      0x00\n      keccak256\n      0x00\n        /* \"erc20 contract/tok.sol\":487:515  balances[msg.sender]-=amount */\n      dup3\n      dup3\n      sload\n      tag_49\n      swap2\n      swap1\n      tag_50\n      jump\t// in\n    tag_49:\n      swap3\n      pop\n      pop\n      dup2\n      swap1\n      sstore\n      pop\n        /* \"erc20 contract/tok.sol\":536:542  amount */\n      dup1\n        /* \"erc20 contract/tok.sol\":522:530  balances */\n      0x04\n        /* \"erc20 contract/tok.sol\":522:534  balances[to] */\n      0x00\n        /* \"erc20 contract/tok.sol\":531:533  to */\n      dup5\n        /* \"erc20 contract/tok.sol\":522:534  balances[to] */\n      0xffffffffffffffffffffffffffffffffffffffff\n      and\n      0xffffffffffffffffffffffffffffffffffffffff\n      and\n      dup2\n      mstore\n      0x20\n      add\n      swap1\n      dup2\n      mstore\n      0x20\n      add\n      0x00\n      keccak256\n      0x00\n        /* \"erc20 contract/tok.sol\":522:542  balances[to]+=amount */\n      dup3\n      dup3\n      sload\n      tag_51\n      swap2\n      swap1\n      tag_52\n      jump\t// in\n    tag_51:\n      swap3\n      pop\n      pop\n      dup2\n      swap1\n      sstore\n      pop\n        /* \"erc20 contract/tok.sol\":361:546  function transfer(address to , uint256 amount) external{\r... */\n      pop\n      pop\n      jump\t// out\n        /* \"#utility.yul\":7:146   */\n    tag_54:\n      0x00\n        /* \"#utility.yul\":91:97   */\n      dup2\n        /* \"#utility.yul\":78:98   */\n      calldataload\n        /* \"#utility.yul\":69:98   */\n      swap1\n      pop\n        /* \"#utility.yul\":107:140   */\n      tag_56\n        /* \"#utility.yul\":134:139   */\n      dup2\n        /* \"#utility.yul\":107:140   */\n      tag_57\n      jump\t// in\n    tag_56:\n        /* \"#utility.yul\":59:146   */\n      swap3\n      swap2\n      pop\n      pop\n      jump\t// out\n        /* \"#utility.yul\":152:291   */\n    tag_58:\n      0x00\n        /* \"#utility.yul\":236:242   */\n      dup2\n        /* \"#utility.yul\":223:243   */\n      calldataload\n        /* \"#utility.yul\":214:243   */\n      swap1\n      pop\n        /* \"#utility.yul\":252:285   */\n      tag_60\n        /* \"#utility.yul\":279:284   */\n      dup2\n        /* \"#utility.yul\":252:285   */\n      tag_61\n      jump\t// in\n    tag_60:\n        /* \"#utility.yul\":204:291   */\n      swap3\n      swap2\n      pop\n      pop\n      jump\t// out\n        /* \"#utility.yul\":297:559   */\n    tag_15:\n      0x00\n        /* \"#utility.yul\":405:407   */\n      0x20\n        /* \"#utility.yul\":393:402   */\n      dup3\n        /* \"#utility.yul\":384:391   */\n      dup5\n        /* \"#utility.yul\":380:403   */\n      sub\n        /* \"#utility.yul\":376:408   */\n      slt\n        /* \"#utility.yul\":373:375   */\n      iszero\n      tag_63\n      jumpi\n        /* \"#utility.yul\":421:422   */\n      0x00\n        /* \"#utility.yul\":418:419   */\n      dup1\n        /* \"#utility.yul\":411:423   */\n      revert\n        /* \"#utility.yul\":373:375   */\n    tag_63:\n        /* \"#utility.yul\":464:465   */\n      0x00\n        /* \"#utility.yul\":489:542   */\n      tag_64\n        /* \"#utility.yul\":534:541   */\n      dup5\n        /* \"#utility.yul\":525:531   */\n      dup3\n        /* \"#utility.yul\":514:523   */\n      dup6\n        /* \"#utility.yul\":510:532   */\n      add\n        /* \"#utility.yul\":489:542   */\n      tag_54\n      jump\t// in\n    tag_64:\n        /* \"#utility.yul\":479:542   */\n      swap2\n      pop\n        /* \"#utility.yul\":435:552   */\n      pop\n        /* \"#utility.yul\":363:559   */\n      swap3\n      swap2\n      pop\n      pop\n      jump\t// out\n        /* \"#utility.yul\":565:972   */\n    tag_31:\n      0x00\n      dup1\n        /* \"#utility.yul\":690:692   */\n      0x40\n        /* \"#utility.yul\":678:687   */\n      dup4\n        /* \"#utility.yul\":669:676   */\n      dup6\n        /* \"#utility.yul\":665:688   */\n      sub\n        /* \"#utility.yul\":661:693   */\n      slt\n        /* \"#utility.yul\":658:660   */\n      iszero\n      tag_66\n      jumpi\n        /* \"#utility.yul\":706:707   */\n      0x00\n        /* \"#utility.yul\":703:704   */\n      dup1\n        /* \"#utility.yul\":696:708   */\n      revert\n        /* \"#utility.yul\":658:660   */\n    tag_66:\n        /* \"#utility.yul\":749:750   */\n      0x00\n        /* \"#utility.yul\":774:827   */\n      tag_67\n        /* \"#utility.yul\":819:826   */\n      dup6\n        /* \"#utility.yul\":810:816   */\n      dup3\n        /* \"#utility.yul\":799:808   */\n      dup7\n        /* \"#utility.yul\":795:817   */\n      add\n        /* \"#utility.yul\":774:827   */\n      tag_54\n      jump\t// in\n    tag_67:\n        /* \"#utility.yul\":764:827   */\n      swap3\n      pop\n        /* \"#utility.yul\":720:837   */\n      pop\n        /* \"#utility.yul\":876:878   */\n      0x20\n        /* \"#utility.yul\":902:955   */\n      tag_68\n        /* \"#utility.yul\":947:954   */\n      dup6\n        /* \"#utility.yul\":938:944   */\n      dup3\n        /* \"#utility.yul\":927:936   */\n      dup7\n        /* \"#utility.yul\":923:945   */\n      add\n        /* \"#utility.yul\":902:955   */\n      tag_58\n      jump\t// in\n    tag_68:\n        /* \"#utility.yul\":892:955   */\n      swap2\n      pop\n        /* \"#utility.yul\":847:965   */\n      pop\n        /* \"#utility.yul\":648:972   */\n      swap3\n      pop\n      swap3\n      swap1\n      pop\n      jump\t// out\n        /* \"#utility.yul\":978:1096   */\n    tag_69:\n        /* \"#utility.yul\":1065:1089   */\n      tag_71\n        /* \"#utility.yul\":1083:1088   */\n      dup2\n        /* \"#utility.yul\":1065:1089   */\n      tag_72\n      jump\t// in\n    tag_71:\n        /* \"#utility.yul\":1060:1063   */\n      dup3\n        /* \"#utility.yul\":1053:1090   */\n      mstore\n        /* \"#utility.yul\":1043:1096   */\n      pop\n      pop\n      jump\t// out\n        /* \"#utility.yul\":1102:1466   */\n    tag_73:\n      0x00\n        /* \"#utility.yul\":1218:1257   */\n      tag_75\n        /* \"#utility.yul\":1251:1256   */\n      dup3\n        /* \"#utility.yul\":1218:1257   */\n      tag_76\n      jump\t// in\n    tag_75:\n        /* \"#utility.yul\":1273:1344   */\n      tag_77\n        /* \"#utility.yul\":1337:1343   */\n      dup2\n        /* \"#utility.yul\":1332:1335   */\n      dup6\n        /* \"#utility.yul\":1273:1344   */\n      tag_78\n      jump\t// in\n    tag_77:\n        /* \"#utility.yul\":1266:1344   */\n      swap4\n      pop\n        /* \"#utility.yul\":1353:1405   */\n      tag_79\n        /* \"#utility.yul\":1398:1404   */\n      dup2\n        /* \"#utility.yul\":1393:1396   */\n      dup6\n        /* \"#utility.yul\":1386:1390   */\n      0x20\n        /* \"#utility.yul\":1379:1384   */\n      dup7\n        /* \"#utility.yul\":1375:1391   */\n      add\n        /* \"#utility.yul\":1353:1405   */\n      tag_80\n      jump\t// in\n    tag_79:\n        /* \"#utility.yul\":1430:1459   */\n      tag_81\n        /* \"#utility.yul\":1452:1458   */\n      dup2\n        /* \"#utility.yul\":1430:1459   */\n      tag_82\n      jump\t// in\n    tag_81:\n        /* \"#utility.yul\":1425:1428   */\n      dup5\n        /* \"#utility.yul\":1421:1460   */\n      add\n        /* \"#utility.yul\":1414:1460   */\n      swap2\n      pop\n        /* \"#utility.yul\":1194:1466   */\n      pop\n      swap3\n      swap2\n      pop\n      pop\n      jump\t// out\n        /* \"#utility.yul\":1472:1786   */\n    tag_83:\n      0x00\n        /* \"#utility.yul\":1635:1702   */\n      tag_85\n        /* \"#utility.yul\":1699:1701   */\n      0x10\n        /* \"#utility.yul\":1694:1697   */\n      dup4\n        /* \"#utility.yul\":1635:1702   */\n      tag_78\n      jump\t// in\n    tag_85:\n        /* \"#utility.yul\":1628:1702   */\n      swap2\n      pop\n        /* \"#utility.yul\":1732:1750   */\n      0x6e6f7420656e6f75676820746f6b656e00000000000000000000000000000000\n        /* \"#utility.yul\":1728:1729   */\n      0x00\n        /* \"#utility.yul\":1723:1726   */\n      dup4\n        /* \"#utility.yul\":1719:1730   */\n      add\n        /* \"#utility.yul\":1712:1751   */\n      mstore\n        /* \"#utility.yul\":1777:1779   */\n      0x20\n        /* \"#utility.yul\":1772:1775   */\n      dup3\n        /* \"#utility.yul\":1768:1780   */\n      add\n        /* \"#utility.yul\":1761:1780   */\n      swap1\n      pop\n        /* \"#utility.yul\":1618:1786   */\n      swap2\n      swap1\n      pop\n      jump\t// out\n        /* \"#utility.yul\":1792:1910   */\n    tag_86:\n        /* \"#utility.yul\":1879:1903   */\n      tag_88\n        /* \"#utility.yul\":1897:1902   */\n      dup2\n        /* \"#utility.yul\":1879:1903   */\n      tag_89\n      jump\t// in\n    tag_88:\n        /* \"#utility.yul\":1874:1877   */\n      dup3\n        /* \"#utility.yul\":1867:1904   */\n      mstore\n        /* \"#utility.yul\":1857:1910   */\n      pop\n      pop\n      jump\t// out\n        /* \"#utility.yul\":1916:2138   */\n    tag_25:\n      0x00\n        /* \"#utility.yul\":2047:2049   */\n      0x20\n        /* \"#utility.yul\":2036:2045   */\n      dup3\n        /* \"#utility.yul\":2032:2050   */\n      add\n        /* \"#utility.yul\":2024:2050   */\n      swap1\n      pop\n        /* \"#utility.yul\":2060:2131   */\n      tag_91\n        /* \"#utility.yul\":2128:2129   */\n      0x00\n        /* \"#utility.yul\":2117:2126   */\n      dup4\n        /* \"#utility.yul\":2113:2130   */\n      add\n        /* \"#utility.yul\":2104:2110   */\n      dup5\n        /* \"#utility.yul\":2060:2131   */\n      tag_69\n      jump\t// in\n    tag_91:\n        /* \"#utility.yul\":2014:2138   */\n      swap3\n      swap2\n      pop\n      pop\n      jump\t// out\n        /* \"#utility.yul\":2144:2457   */\n    tag_12:\n      0x00\n        /* \"#utility.yul\":2295:2297   */\n      0x20\n        /* \"#utility.yul\":2284:2293   */\n      dup3\n        /* \"#utility.yul\":2280:2298   */\n      add\n        /* \"#utility.yul\":2272:2298   */\n      swap1\n      pop\n        /* \"#utility.yul\":2344:2353   */\n      dup2\n        /* \"#utility.yul\":2338:2342   */\n      dup2\n        /* \"#utility.yul\":2334:2354   */\n      sub\n        /* \"#utility.yul\":2330:2331   */\n      0x00\n        /* \"#utility.yul\":2319:2328   */\n      dup4\n        /* \"#utility.yul\":2315:2332   */\n      add\n        /* \"#utility.yul\":2308:2355   */\n      mstore\n        /* \"#utility.yul\":2372:2450   */\n      tag_93\n        /* \"#utility.yul\":2445:2449   */\n      dup2\n        /* \"#utility.yul\":2436:2442   */\n      dup5\n        /* \"#utility.yul\":2372:2450   */\n      tag_73\n      jump\t// in\n    tag_93:\n        /* \"#utility.yul\":2364:2450   */\n      swap1\n      pop\n        /* \"#utility.yul\":2262:2457   */\n      swap3\n      swap2\n      pop\n      pop\n      jump\t// out\n        /* \"#utility.yul\":2463:2882   */\n    tag_48:\n      0x00\n        /* \"#utility.yul\":2667:2669   */\n      0x20\n        /* \"#utility.yul\":2656:2665   */\n      dup3\n        /* \"#utility.yul\":2652:2670   */\n      add\n        /* \"#utility.yul\":2644:2670   */\n      swap1\n      pop\n        /* \"#utility.yul\":2716:2725   */\n      dup2\n        /* \"#utility.yul\":2710:2714   */\n      dup2\n        /* \"#utility.yul\":2706:2726   */\n      sub\n        /* \"#utility.yul\":2702:2703   */\n      0x00\n        /* \"#utility.yul\":2691:2700   */\n      dup4\n        /* \"#utility.yul\":2687:2704   */\n      add\n        /* \"#utility.yul\":2680:2727   */\n      mstore\n        /* \"#utility.yul\":2744:2875   */\n      tag_95\n        /* \"#utility.yul\":2870:2874   */\n      dup2\n        /* \"#utility.yul\":2744:2875   */\n      tag_83\n      jump\t// in\n    tag_95:\n        /* \"#utility.yul\":2736:2875   */\n      swap1\n      pop\n        /* \"#utility.yul\":2634:2882   */\n      swap2\n      swap1\n      pop\n      jump\t// out\n        /* \"#utility.yul\":2888:3110   */\n    tag_18:\n      0x00\n        /* \"#utility.yul\":3019:3021   */\n      0x20\n        /* \"#utility.yul\":3008:3017   */\n      dup3\n        /* \"#utility.yul\":3004:3022   */\n      add\n        /* \"#utility.yul\":2996:3022   */\n      swap1\n      pop\n        /* \"#utility.yul\":3032:3103   */\n      tag_97\n        /* \"#utility.yul\":3100:3101   */\n      0x00\n        /* \"#utility.yul\":3089:3098   */\n      dup4\n        /* \"#utility.yul\":3085:3102   */\n      add\n        /* \"#utility.yul\":3076:3082   */\n      dup5\n        /* \"#utility.yul\":3032:3103   */\n      tag_86\n      jump\t// in\n    tag_97:\n        /* \"#utility.yul\":2986:3110   */\n      swap3\n      swap2\n      pop\n      pop\n      jump\t// out\n        /* \"#utility.yul\":3116:3215   */\n    tag_76:\n      0x00\n        /* \"#utility.yul\":3202:3207   */\n      dup2\n        /* \"#utility.yul\":3196:3208   */\n      mload\n        /* \"#utility.yul\":3186:3208   */\n      swap1\n      pop\n        /* \"#utility.yul\":3175:3215   */\n      swap2\n      swap1\n      pop\n      jump\t// out\n        /* \"#utility.yul\":3221:3390   */\n    tag_78:\n      0x00\n        /* \"#utility.yul\":3339:3345   */\n      dup3\n        /* \"#utility.yul\":3334:3337   */\n      dup3\n        /* \"#utility.yul\":3327:3346   */\n      mstore\n        /* \"#utility.yul\":3379:3383   */\n      0x20\n        /* \"#utility.yul\":3374:3377   */\n      dup3\n        /* \"#utility.yul\":3370:3384   */\n      add\n        /* \"#utility.yul\":3355:3384   */\n      swap1\n      pop\n        /* \"#utility.yul\":3317:3390   */\n      swap3\n      swap2\n      pop\n      pop\n      jump\t// out\n        /* \"#utility.yul\":3396:3701   */\n    tag_52:\n      0x00\n        /* \"#utility.yul\":3455:3475   */\n      tag_101\n        /* \"#utility.yul\":3473:3474   */\n      dup3\n        /* \"#utility.yul\":3455:3475   */\n      tag_89\n      jump\t// in\n    tag_101:\n        /* \"#utility.yul\":3450:3475   */\n      swap2\n      pop\n        /* \"#utility.yul\":3489:3509   */\n      tag_102\n        /* \"#utility.yul\":3507:3508   */\n      dup4\n        /* \"#utility.yul\":3489:3509   */\n      tag_89\n      jump\t// in\n    tag_102:\n        /* \"#utility.yul\":3484:3509   */\n      swap3\n      pop\n        /* \"#utility.yul\":3643:3644   */\n      dup3\n        /* \"#utility.yul\":3575:3641   */\n      0xffffffffffffffffffffffffffffffffffffffffffffffffffffffffffffffff\n        /* \"#utility.yul\":3571:3645   */\n      sub\n        /* \"#utility.yul\":3568:3569   */\n      dup3\n        /* \"#utility.yul\":3565:3646   */\n      gt\n        /* \"#utility.yul\":3562:3564   */\n      iszero\n      tag_103\n      jumpi\n        /* \"#utility.yul\":3649:3667   */\n      tag_104\n      tag_105\n      jump\t// in\n    tag_104:\n        /* \"#utility.yul\":3562:3564   */\n    tag_103:\n        /* \"#utility.yul\":3693:3694   */\n      dup3\n        /* \"#utility.yul\":3690:3691   */\n      dup3\n        /* \"#utility.yul\":3686:3695   */\n      add\n        /* \"#utility.yul\":3679:3695   */\n      swap1\n      pop\n        /* \"#utility.yul\":3440:3701   */\n      swap3\n      swap2\n      pop\n      pop\n      jump\t// out\n        /* \"#utility.yul\":3707:3898   */\n    tag_50:\n      0x00\n        /* \"#utility.yul\":3767:3787   */\n      tag_107\n        /* \"#utility.yul\":3785:3786   */\n      dup3\n        /* \"#utility.yul\":3767:3787   */\n      tag_89\n      jump\t// in\n    tag_107:\n        /* \"#utility.yul\":3762:3787   */\n      swap2\n      pop\n        /* \"#utility.yul\":3801:3821   */\n      tag_108\n        /* \"#utility.yul\":3819:3820   */\n      dup4\n        /* \"#utility.yul\":3801:3821   */\n      tag_89\n      jump\t// in\n    tag_108:\n        /* \"#utility.yul\":3796:3821   */\n      swap3\n      pop\n        /* \"#utility.yul\":3840:3841   */\n      dup3\n        /* \"#utility.yul\":3837:3838   */\n      dup3\n        /* \"#utility.yul\":3834:3842   */\n      lt\n        /* \"#utility.yul\":3831:3833   */\n      iszero\n      tag_109\n      jumpi\n        /* \"#utility.yul\":3845:3863   */\n      tag_110\n      tag_105\n      jump\t// in\n    tag_110:\n        /* \"#utility.yul\":3831:3833   */\n    tag_109:\n        /* \"#utility.yul\":3890:3891   */\n      dup3\n        /* \"#utility.yul\":3887:3888   */\n      dup3\n        /* \"#utility.yul\":3883:3892   */\n      sub\n        /* \"#utility.yul\":3875:3892   */\n      swap1\n      pop\n        /* \"#utility.yul\":3752:3898   */\n      swap3\n      swap2\n      pop\n      pop\n      jump\t// out\n        /* \"#utility.yul\":3904:4000   */\n    tag_72:\n      0x00\n        /* \"#utility.yul\":3970:3994   */\n      tag_112\n        /* \"#utility.yul\":3988:3993   */\n      dup3\n        /* \"#utility.yul\":3970:3994   */\n      tag_113\n      jump\t// in\n    tag_112:\n        /* \"#utility.yul\":3959:3994   */\n      swap1\n      pop\n        /* \"#utility.yul\":3949:4000   */\n      swap2\n      swap1\n      pop\n      jump\t// out\n        /* \"#utility.yul\":4006:4132   */\n    tag_113:\n      0x00\n        /* \"#utility.yul\":4083:4125   */\n      0xffffffffffffffffffffffffffffffffffffffff\n        /* \"#utility.yul\":4076:4081   */\n      dup3\n        /* \"#utility.yul\":4072:4126   */\n      and\n        /* \"#utility.yul\":4061:4126   */\n      swap1\n      pop\n        /* \"#utility.yul\":4051:4132   */\n      swap2\n      swap1\n      pop\n      jump\t// out\n        /* \"#utility.yul\":4138:4215   */\n    tag_89:\n      0x00\n        /* \"#utility.yul\":4204:4209   */\n      dup2\n        /* \"#utility.yul\":4193:4209   */\n      swap1\n      pop\n        /* \"#utility.yul\":4183:4215   */\n      swap2\n      swap1\n      pop\n      jump\t// out\n        /* \"#utility.yul\":4221:4528   */\n    tag_80:\n        /* \"#utility.yul\":4289:4290   */\n      0x00\n        /* \"#utility.yul\":4299:4412   */\n    tag_117:\n        /* \"#utility.yul\":4313:4319   */\n      dup4\n        /* \"#utility.yul\":4310:4311   */\n      dup2\n        /* \"#utility.yul\":4307:4320   */\n      lt\n        /* \"#utility.yul\":4299:4412   */\n      iszero\n      tag_119\n      jumpi\n        /* \"#utility.yul\":4398:4399   */\n      dup1\n        /* \"#utility.yul\":4393:4396   */\n      dup3\n        /* \"#utility.yul\":4389:4400   */\n      add\n        /* \"#utility.yul\":4383:4401   */\n      mload\n        /* \"#utility.yul\":4379:4380   */\n      dup2\n        /* \"#utility.yul\":4374:4377   */\n      dup5\n        /* \"#utility.yul\":4370:4381   */\n      add\n        /* \"#utility.yul\":4363:4402   */\n      mstore\n        /* \"#utility.yul\":4335:4337   */\n      0x20\n        /* \"#utility.yul\":4332:4333   */\n      dup2\n        /* \"#utility.yul\":4328:4338   */\n      add\n        /* \"#utility.yul\":4323:4338   */\n      swap1\n      pop\n        /* \"#utility.yul\":4299:4412   */\n      jump(tag_117)\n    tag_119:\n        /* \"#utility.yul\":4430:4436   */\n      dup4\n        /* \"#utility.yul\":4427:4428   */\n      dup2\n        /* \"#utility.yul\":4424:4437   */\n      gt\n        /* \"#utility.yul\":4421:4423   */\n      iszero\n      tag_120\n      jumpi\n        /* \"#utility.yul\":4510:4511   */\n      0x00\n        /* \"#utility.yul\":4501:4507   */\n      dup5\n        /* \"#utility.yul\":4496:4499   */\n      dup5\n        /* \"#utility.yul\":4492:4508   */\n      add\n        /* \"#utility.yul\":4485:4512   */\n      mstore\n        /* \"#utility.yul\":4421:4423   */\n    tag_120:\n        /* \"#utility.yul\":4270:4528   */\n      pop\n      pop\n      pop\n      pop\n      jump\t// out\n        /* \"#utility.yul\":4534:4854   */\n    tag_34:\n      0x00\n        /* \"#utility.yul\":4615:4616   */\n      0x02\n        /* \"#utility.yul\":4609:4613   */\n      dup3\n        /* \"#utility.yul\":4605:4617   */\n      div\n        /* \"#utility.yul\":4595:4617   */\n      swap1\n      pop\n        /* \"#utility.yul\":4662:4663   */\n      0x01\n        /* \"#utility.yul\":4656:4660   */\n      dup3\n        /* \"#utility.yul\":4652:4664   */\n      and\n        /* \"#utility.yul\":4683:4701   */\n      dup1\n        /* \"#utility.yul\":4673:4675   */\n      tag_122\n      jumpi\n        /* \"#utility.yul\":4739:4743   */\n      0x7f\n        /* \"#utility.yul\":4731:4737   */\n      dup3\n        /* \"#utility.yul\":4727:4744   */\n      and\n        /* \"#utility.yul\":4717:4744   */\n      swap2\n      pop\n        /* \"#utility.yul\":4673:4675   */\n    tag_122:\n        /* \"#utility.yul\":4801:4803   */\n      0x20\n        /* \"#utility.yul\":4793:4799   */\n      dup3\n        /* \"#utility.yul\":4790:4804   */\n      lt\n        /* \"#utility.yul\":4770:4788   */\n      dup2\n        /* \"#utility.yul\":4767:4805   */\n      eq\n        /* \"#utility.yul\":4764:4766   */\n      iszero\n      tag_123\n      jumpi\n        /* \"#utility.yul\":4820:4838   */\n      tag_124\n      tag_125\n      jump\t// in\n    tag_124:\n        /* \"#utility.yul\":4764:4766   */\n    tag_123:\n        /* \"#utility.yul\":4585:4854   */\n      pop\n      swap2\n      swap1\n      pop\n      jump\t// out\n        /* \"#utility.yul\":4860:5040   */\n    tag_105:\n        /* \"#utility.yul\":4908:4985   */\n      0x4e487b7100000000000000000000000000000000000000000000000000000000\n        /* \"#utility.yul\":4905:4906   */\n      0x00\n        /* \"#utility.yul\":4898:4986   */\n      mstore\n        /* \"#utility.yul\":5005:5009   */\n      0x11\n        /* \"#utility.yul\":5002:5003   */\n      0x04\n        /* \"#utility.yul\":4995:5010   */\n      mstore\n        /* \"#utility.yul\":5029:5033   */\n      0x24\n        /* \"#utility.yul\":5026:5027   */\n      0x00\n        /* \"#utility.yul\":5019:5034   */\n      revert\n        /* \"#utility.yul\":5046:5226   */\n    tag_125:\n        /* \"#utility.yul\":5094:5171   */\n      0x4e487b7100000000000000000000000000000000000000000000000000000000\n        /* \"#utility.yul\":5091:5092   */\n      0x00\n        /* \"#utility.yul\":5084:5172   */\n      mstore\n        /* \"#utility.yul\":5191:5195   */\n      0x22\n        /* \"#utility.yul\":5188:5189   */\n      0x04\n        /* \"#utility.yul\":5181:5196   */\n      mstore\n        /* \"#utility.yul\":5215:5219   */\n      0x24\n        /* \"#utility.yul\":5212:5213   */\n      0x00\n        /* \"#utility.yul\":5205:5220   */\n      revert\n        /* \"#utility.yul\":5232:5334   */\n    tag_82:\n      0x00\n        /* \"#utility.yul\":5324:5326   */\n      0x1f\n        /* \"#utility.yul\":5320:5327   */\n      not\n        /* \"#utility.yul\":5315:5317   */\n      0x1f\n        /* \"#utility.yul\":5308:5313   */\n      dup4\n        /* \"#utility.yul\":5304:5318   */\n      add\n        /* \"#utility.yul\":5300:5328   */\n      and\n        /* \"#utility.yul\":5290:5328   */\n      swap1\n      pop\n        /* \"#utility.yul\":5280:5334   */\n      swap2\n      swap1\n      pop\n      jump\t// out\n        /* \"#utility.yul\":5340:5462   */\n    tag_57:\n        /* \"#utility.yul\":5413:5437   */\n      tag_130\n        /* \"#utility.yul\":5431:5436   */\n      dup2\n        /* \"#utility.yul\":5413:5437   */\n      tag_72\n      jump\t// in\n    tag_130:\n        /* \"#utility.yul\":5406:5411   */\n      dup2\n        /* \"#utility.yul\":5403:5438   */\n      eq\n        /* \"#utility.yul\":5393:5395   */\n      tag_131\n      jumpi\n        /* \"#utility.yul\":5452:5453   */\n      0x00\n        /* \"#utility.yul\":5449:5450   */\n      dup1\n        /* \"#utility.yul\":5442:5454   */\n      revert\n        /* \"#utility.yul\":5393:5395   */\n    tag_131:\n        /* \"#utility.yul\":5383:5462   */\n      pop\n      jump\t// out\n        /* \"#utility.yul\":5468:5590   */\n    tag_61:\n        /* \"#utility.yul\":5541:5565   */\n      tag_133\n        /* \"#utility.yul\":5559:5564   */\n      dup2\n        /* \"#utility.yul\":5541:5565   */\n      tag_89\n      jump\t// in\n    tag_133:\n        /* \"#utility.yul\":5534:5539   */\n      dup2\n        /* \"#utility.yul\":5531:5566   */\n      eq\n        /* \"#utility.yul\":5521:5523   */\n      tag_134\n      jumpi\n        /* \"#utility.yul\":5580:5581   */\n      0x00\n        /* \"#utility.yul\":5577:5578   */\n      dup1\n        /* \"#utility.yul\":5570:5582   */\n      revert\n        /* \"#utility.yul\":5521:5523   */\n    tag_134:\n        /* \"#utility.yul\":5511:5590   */\n      pop\n      jump\t// out\n\n    auxdata: 0xa2646970667358221220fd1c695cf70db850f5b87db99b693ed535575f2a6d396a09cce748c8162b5cfb64736f6c63430008000033\n}\n",
				"bytecode": {
					"linkReferences": {},
					"object": "60806040526040518060400160405280600c81526020017f68617264686174746f6b656e00000000000000000000000000000000000000008152506000908051906020019061004f92919061013b565b506040518060400160405280600381526020017f68687400000000000000000000000000000000000000000000000000000000008152506001908051906020019061009b92919061013b565b506127106002553480156100ae57600080fd5b50600254600460003373ffffffffffffffffffffffffffffffffffffffff1673ffffffffffffffffffffffffffffffffffffffff1681526020019081526020016000208190555033600360006101000a81548173ffffffffffffffffffffffffffffffffffffffff021916908373ffffffffffffffffffffffffffffffffffffffff16021790555061023f565b828054610147906101de565b90600052602060002090601f01602090048101928261016957600085556101b0565b82601f1061018257805160ff19168380011785556101b0565b828001600101855582156101b0579182015b828111156101af578251825591602001919060010190610194565b5b5090506101bd91906101c1565b5090565b5b808211156101da5760008160009055506001016101c2565b5090565b600060028204905060018216806101f657607f821691505b6020821081141561020a57610209610210565b5b50919050565b7f4e487b7100000000000000000000000000000000000000000000000000000000600052602260045260246000fd5b6107a68061024e6000396000f3fe608060405234801561001057600080fd5b50600436106100625760003560e01c806306fdde03146100675780633d64125b1461008557806372dd529b146100b55780638da5cb5b146100d357806395d89b41146100f1578063a9059cbb1461010f575b600080fd5b61006f61012b565b60405161007c919061052f565b60405180910390f35b61009f600480360381019061009a9190610418565b6101b9565b6040516100ac9190610571565b60405180910390f35b6100bd610202565b6040516100ca9190610571565b60405180910390f35b6100db610208565b6040516100e89190610514565b60405180910390f35b6100f961022e565b604051610106919061052f565b60405180910390f35b61012960048036038101906101249190610441565b6102bc565b005b60008054610138906106a1565b80601f0160208091040260200160405190810160405280929190818152602001828054610164906106a1565b80156101b15780601f10610186576101008083540402835291602001916101b1565b820191906000526020600020905b81548152906001019060200180831161019457829003601f168201915b505050505081565b6000600460008373ffffffffffffffffffffffffffffffffffffffff1673ffffffffffffffffffffffffffffffffffffffff168152602001908152602001600020549050919050565b60025481565b600360009054906101000a900473ffffffffffffffffffffffffffffffffffffffff1681565b6001805461023b906106a1565b80601f0160208091040260200160405190810160405280929190818152602001828054610267906106a1565b80156102b45780601f10610289576101008083540402835291602001916102b4565b820191906000526020600020905b81548152906001019060200180831161029757829003601f168201915b505050505081565b80600460003373ffffffffffffffffffffffffffffffffffffffff1673ffffffffffffffffffffffffffffffffffffffff16815260200190815260200160002054101561033e576040517f08c379a000000000000000000000000000000000000000000000000000000000815260040161033590610551565b60405180910390fd5b80600460003373ffffffffffffffffffffffffffffffffffffffff1673ffffffffffffffffffffffffffffffffffffffff168152602001908152602001600020600082825461038d91906105fe565b9250508190555080600460008473ffffffffffffffffffffffffffffffffffffffff1673ffffffffffffffffffffffffffffffffffffffff16815260200190815260200160002060008282546103e391906105a8565b925050819055505050565b6000813590506103fd81610742565b92915050565b60008135905061041281610759565b92915050565b60006020828403121561042a57600080fd5b6000610438848285016103ee565b91505092915050565b6000806040838503121561045457600080fd5b6000610462858286016103ee565b925050602061047385828601610403565b9150509250929050565b61048681610632565b82525050565b60006104978261058c565b6104a18185610597565b93506104b181856020860161066e565b6104ba81610731565b840191505092915050565b60006104d2601083610597565b91507f6e6f7420656e6f75676820746f6b656e000000000000000000000000000000006000830152602082019050919050565b61050e81610664565b82525050565b6000602082019050610529600083018461047d565b92915050565b60006020820190508181036000830152610549818461048c565b905092915050565b6000602082019050818103600083015261056a816104c5565b9050919050565b60006020820190506105866000830184610505565b92915050565b600081519050919050565b600082825260208201905092915050565b60006105b382610664565b91506105be83610664565b9250827fffffffffffffffffffffffffffffffffffffffffffffffffffffffffffffffff038211156105f3576105f26106d3565b5b828201905092915050565b600061060982610664565b915061061483610664565b925082821015610627576106266106d3565b5b828203905092915050565b600061063d82610644565b9050919050565b600073ffffffffffffffffffffffffffffffffffffffff82169050919050565b6000819050919050565b60005b8381101561068c578082015181840152602081019050610671565b8381111561069b576000848401525b50505050565b600060028204905060018216806106b957607f821691505b602082108114156106cd576106cc610702565b5b50919050565b7f4e487b7100000000000000000000000000000000000000000000000000000000600052601160045260246000fd5b7f4e487b7100000000000000000000000000000000000000000000000000000000600052602260045260246000fd5b6000601f19601f8301169050919050565b61074b81610632565b811461075657600080fd5b50565b61076281610664565b811461076d57600080fd5b5056fea2646970667358221220fd1c695cf70db850f5b87db99b693ed535575f2a6d396a09cce748c8162b5cfb64736f6c63430008000033",
					"opcodes": "PUSH1 0x80 PUSH1 0x40 MSTORE PUSH1 0x40 MLOAD DUP1 PUSH1 0x40 ADD PUSH1 0x40 MSTORE DUP1 PUSH1 0xC DUP2 MSTORE PUSH1 0x20 ADD PUSH32 0x68617264686174746F6B656E0000000000000000000000000000000000000000 DUP2 MSTORE POP PUSH1 0x0 SWAP1 DUP1 MLOAD SWAP1 PUSH1 0x20 ADD SWAP1 PUSH2 0x4F SWAP3 SWAP2 SWAP1 PUSH2 0x13B JUMP JUMPDEST POP PUSH1 0x40 MLOAD DUP1 PUSH1 0x40 ADD PUSH1 0x40 MSTORE DUP1 PUSH1 0x3 DUP2 MSTORE PUSH1 0x20 ADD PUSH32 0x6868740000000000000000000000000000000000000000000000000000000000 DUP2 MSTORE POP PUSH1 0x1 SWAP1 DUP1 MLOAD SWAP1 PUSH1 0x20 ADD SWAP1 PUSH2 0x9B SWAP3 SWAP2 SWAP1 PUSH2 0x13B JUMP JUMPDEST POP PUSH2 0x2710 PUSH1 0x2 SSTORE CALLVALUE DUP1 ISZERO PUSH2 0xAE JUMPI PUSH1 0x0 DUP1 REVERT JUMPDEST POP PUSH1 0x2 SLOAD PUSH1 0x4 PUSH1 0x0 CALLER PUSH20 0xFFFFFFFFFFFFFFFFFFFFFFFFFFFFFFFFFFFFFFFF AND PUSH20 0xFFFFFFFFFFFFFFFFFFFFFFFFFFFFFFFFFFFFFFFF AND DUP2 MSTORE PUSH1 0x20 ADD SWAP1 DUP2 MSTORE PUSH1 0x20 ADD PUSH1 0x0 KECCAK256 DUP2 SWAP1 SSTORE POP CALLER PUSH1 0x3 PUSH1 0x0 PUSH2 0x100 EXP DUP2 SLOAD DUP2 PUSH20 0xFFFFFFFFFFFFFFFFFFFFFFFFFFFFFFFFFFFFFFFF MUL NOT AND SWAP1 DUP4 PUSH20 0xFFFFFFFFFFFFFFFFFFFFFFFFFFFFFFFFFFFFFFFF AND MUL OR SWAP1 SSTORE POP PUSH2 0x23F JUMP JUMPDEST DUP3 DUP1 SLOAD PUSH2 0x147 SWAP1 PUSH2 0x1DE JUMP JUMPDEST SWAP1 PUSH1 0x0 MSTORE PUSH1 0x20 PUSH1 0x0 KECCAK256 SWAP1 PUSH1 0x1F ADD PUSH1 0x20 SWAP1 DIV DUP2 ADD SWAP3 DUP3 PUSH2 0x169 JUMPI PUSH1 0x0 DUP6 SSTORE PUSH2 0x1B0 JUMP JUMPDEST DUP3 PUSH1 0x1F LT PUSH2 0x182 JUMPI DUP1 MLOAD PUSH1 0xFF NOT AND DUP4 DUP1 ADD OR DUP6 SSTORE PUSH2 0x1B0 JUMP JUMPDEST DUP3 DUP1 ADD PUSH1 0x1 ADD DUP6 SSTORE DUP3 ISZERO PUSH2 0x1B0 JUMPI SWAP2 DUP3 ADD JUMPDEST DUP3 DUP2 GT ISZERO PUSH2 0x1AF JUMPI DUP3 MLOAD DUP3 SSTORE SWAP2 PUSH1 0x20 ADD SWAP2 SWAP1 PUSH1 0x1 ADD SWAP1 PUSH2 0x194 JUMP JUMPDEST JUMPDEST POP SWAP1 POP PUSH2 0x1BD SWAP2 SWAP1 PUSH2 0x1C1 JUMP JUMPDEST POP SWAP1 JUMP JUMPDEST JUMPDEST DUP1 DUP3 GT ISZERO PUSH2 0x1DA JUMPI PUSH1 0x0 DUP2 PUSH1 0x0 SWAP1 SSTORE POP PUSH1 0x1 ADD PUSH2 0x1C2 JUMP JUMPDEST POP SWAP1 JUMP JUMPDEST PUSH1 0x0 PUSH1 0x2 DUP3 DIV SWAP1 POP PUSH1 0x1 DUP3 AND DUP1 PUSH2 0x1F6 JUMPI PUSH1 0x7F DUP3 AND SWAP2 POP JUMPDEST PUSH1 0x20 DUP3 LT DUP2 EQ ISZERO PUSH2 0x20A JUMPI PUSH2 0x209 PUSH2 0x210 JUMP JUMPDEST JUMPDEST POP SWAP2 SWAP1 POP JUMP JUMPDEST PUSH32 0x4E487B7100000000000000000000000000000000000000000000000000000000 PUSH1 0x0 MSTORE PUSH1 0x22 PUSH1 0x4 MSTORE PUSH1 0x24 PUSH1 0x0 REVERT JUMPDEST PUSH2 0x7A6 DUP1 PUSH2 0x24E PUSH1 0x0 CODECOPY PUSH1 0x0 RETURN INVALID PUSH1 0x80 PUSH1 0x40 MSTORE CALLVALUE DUP1 ISZERO PUSH2 0x10 JUMPI PUSH1 0x0 DUP1 REVERT JUMPDEST POP PUSH1 0x4 CALLDATASIZE LT PUSH2 0x62 JUMPI PUSH1 0x0 CALLDATALOAD PUSH1 0xE0 SHR DUP1 PUSH4 0x6FDDE03 EQ PUSH2 0x67 JUMPI DUP1 PUSH4 0x3D64125B EQ PUSH2 0x85 JUMPI DUP1 PUSH4 0x72DD529B EQ PUSH2 0xB5 JUMPI DUP1 PUSH4 0x8DA5CB5B EQ PUSH2 0xD3 JUMPI DUP1 PUSH4 0x95D89B41 EQ PUSH2 0xF1 JUMPI DUP1 PUSH4 0xA9059CBB EQ PUSH2 0x10F JUMPI JUMPDEST PUSH1 0x0 DUP1 REVERT JUMPDEST PUSH2 0x6F PUSH2 0x12B JUMP JUMPDEST PUSH1 0x40 MLOAD PUSH2 0x7C SWAP2 SWAP1 PUSH2 0x52F JUMP JUMPDEST PUSH1 0x40 MLOAD DUP1 SWAP2 SUB SWAP1 RETURN JUMPDEST PUSH2 0x9F PUSH1 0x4 DUP1 CALLDATASIZE SUB DUP2 ADD SWAP1 PUSH2 0x9A SWAP2 SWAP1 PUSH2 0x418 JUMP JUMPDEST PUSH2 0x1B9 JUMP JUMPDEST PUSH1 0x40 MLOAD PUSH2 0xAC SWAP2 SWAP1 PUSH2 0x571 JUMP JUMPDEST PUSH1 0x40 MLOAD DUP1 SWAP2 SUB SWAP1 RETURN JUMPDEST PUSH2 0xBD PUSH2 0x202 JUMP JUMPDEST PUSH1 0x40 MLOAD PUSH2 0xCA SWAP2 SWAP1 PUSH2 0x571 JUMP JUMPDEST PUSH1 0x40 MLOAD DUP1 SWAP2 SUB SWAP1 RETURN JUMPDEST PUSH2 0xDB PUSH2 0x208 JUMP JUMPDEST PUSH1 0x40 MLOAD PUSH2 0xE8 SWAP2 SWAP1 PUSH2 0x514 JUMP JUMPDEST PUSH1 0x40 MLOAD DUP1 SWAP2 SUB SWAP1 RETURN JUMPDEST PUSH2 0xF9 PUSH2 0x22E JUMP JUMPDEST PUSH1 0x40 MLOAD PUSH2 0x106 SWAP2 SWAP1 PUSH2 0x52F JUMP JUMPDEST PUSH1 0x40 MLOAD DUP1 SWAP2 SUB SWAP1 RETURN JUMPDEST PUSH2 0x129 PUSH1 0x4 DUP1 CALLDATASIZE SUB DUP2 ADD SWAP1 PUSH2 0x124 SWAP2 SWAP1 PUSH2 0x441 JUMP JUMPDEST PUSH2 0x2BC JUMP JUMPDEST STOP JUMPDEST PUSH1 0x0 DUP1 SLOAD PUSH2 0x138 SWAP1 PUSH2 0x6A1 JUMP JUMPDEST DUP1 PUSH1 0x1F ADD PUSH1 0x20 DUP1 SWAP2 DIV MUL PUSH1 0x20 ADD PUSH1 0x40 MLOAD SWAP1 DUP2 ADD PUSH1 0x40 MSTORE DUP1 SWAP3 SWAP2 SWAP1 DUP2 DUP2 MSTORE PUSH1 0x20 ADD DUP3 DUP1 SLOAD PUSH2 0x164 SWAP1 PUSH2 0x6A1 JUMP JUMPDEST DUP1 ISZERO PUSH2 0x1B1 JUMPI DUP1 PUSH1 0x1F LT PUSH2 0x186 JUMPI PUSH2 0x100 DUP1 DUP4 SLOAD DIV MUL DUP4 MSTORE SWAP2 PUSH1 0x20 ADD SWAP2 PUSH2 0x1B1 JUMP JUMPDEST DUP3 ADD SWAP2 SWAP1 PUSH1 0x0 MSTORE PUSH1 0x20 PUSH1 0x0 KECCAK256 SWAP1 JUMPDEST DUP2 SLOAD DUP2 MSTORE SWAP1 PUSH1 0x1 ADD SWAP1 PUSH1 0x20 ADD DUP1 DUP4 GT PUSH2 0x194 JUMPI DUP3 SWAP1 SUB PUSH1 0x1F AND DUP3 ADD SWAP2 JUMPDEST POP POP POP POP POP DUP2 JUMP JUMPDEST PUSH1 0x0 PUSH1 0x4 PUSH1 0x0 DUP4 PUSH20 0xFFFFFFFFFFFFFFFFFFFFFFFFFFFFFFFFFFFFFFFF AND PUSH20 0xFFFFFFFFFFFFFFFFFFFFFFFFFFFFFFFFFFFFFFFF AND DUP2 MSTORE PUSH1 0x20 ADD SWAP1 DUP2 MSTORE PUSH1 0x20 ADD PUSH1 0x0 KECCAK256 SLOAD SWAP1 POP SWAP2 SWAP1 POP JUMP JUMPDEST PUSH1 0x2 SLOAD DUP2 JUMP JUMPDEST PUSH1 0x3 PUSH1 0x0 SWAP1 SLOAD SWAP1 PUSH2 0x100 EXP SWAP1 DIV PUSH20 0xFFFFFFFFFFFFFFFFFFFFFFFFFFFFFFFFFFFFFFFF AND DUP2 JUMP JUMPDEST PUSH1 0x1 DUP1 SLOAD PUSH2 0x23B SWAP1 PUSH2 0x6A1 JUMP JUMPDEST DUP1 PUSH1 0x1F ADD PUSH1 0x20 DUP1 SWAP2 DIV MUL PUSH1 0x20 ADD PUSH1 0x40 MLOAD SWAP1 DUP2 ADD PUSH1 0x40 MSTORE DUP1 SWAP3 SWAP2 SWAP1 DUP2 DUP2 MSTORE PUSH1 0x20 ADD DUP3 DUP1 SLOAD PUSH2 0x267 SWAP1 PUSH2 0x6A1 JUMP JUMPDEST DUP1 ISZERO PUSH2 0x2B4 JUMPI DUP1 PUSH1 0x1F LT PUSH2 0x289 JUMPI PUSH2 0x100 DUP1 DUP4 SLOAD DIV MUL DUP4 MSTORE SWAP2 PUSH1 0x20 ADD SWAP2 PUSH2 0x2B4 JUMP JUMPDEST DUP3 ADD SWAP2 SWAP1 PUSH1 0x0 MSTORE PUSH1 0x20 PUSH1 0x0 KECCAK256 SWAP1 JUMPDEST DUP2 SLOAD DUP2 MSTORE SWAP1 PUSH1 0x1 ADD SWAP1 PUSH1 0x20 ADD DUP1 DUP4 GT PUSH2 0x297 JUMPI DUP3 SWAP1 SUB PUSH1 0x1F AND DUP3 ADD SWAP2 JUMPDEST POP POP POP POP POP DUP2 JUMP JUMPDEST DUP1 PUSH1 0x4 PUSH1 0x0 CALLER PUSH20 0xFFFFFFFFFFFFFFFFFFFFFFFFFFFFFFFFFFFFFFFF AND PUSH20 0xFFFFFFFFFFFFFFFFFFFFFFFFFFFFFFFFFFFFFFFF AND DUP2 MSTORE PUSH1 0x20 ADD SWAP1 DUP2 MSTORE PUSH1 0x20 ADD PUSH1 0x0 KECCAK256 SLOAD LT ISZERO PUSH2 0x33E JUMPI PUSH1 0x40 MLOAD PUSH32 0x8C379A000000000000000000000000000000000000000000000000000000000 DUP2 MSTORE PUSH1 0x4 ADD PUSH2 0x335 SWAP1 PUSH2 0x551 JUMP JUMPDEST PUSH1 0x40 MLOAD DUP1 SWAP2 SUB SWAP1 REVERT JUMPDEST DUP1 PUSH1 0x4 PUSH1 0x0 CALLER PUSH20 0xFFFFFFFFFFFFFFFFFFFFFFFFFFFFFFFFFFFFFFFF AND PUSH20 0xFFFFFFFFFFFFFFFFFFFFFFFFFFFFFFFFFFFFFFFF AND DUP2 MSTORE PUSH1 0x20 ADD SWAP1 DUP2 MSTORE PUSH1 0x20 ADD PUSH1 0x0 KECCAK256 PUSH1 0x0 DUP3 DUP3 SLOAD PUSH2 0x38D SWAP2 SWAP1 PUSH2 0x5FE JUMP JUMPDEST SWAP3 POP POP DUP2 SWAP1 SSTORE POP DUP1 PUSH1 0x4 PUSH1 0x0 DUP5 PUSH20 0xFFFFFFFFFFFFFFFFFFFFFFFFFFFFFFFFFFFFFFFF AND PUSH20 0xFFFFFFFFFFFFFFFFFFFFFFFFFFFFFFFFFFFFFFFF AND DUP2 MSTORE PUSH1 0x20 ADD SWAP1 DUP2 MSTORE PUSH1 0x20 ADD PUSH1 0x0 KECCAK256 PUSH1 0x0 DUP3 DUP3 SLOAD PUSH2 0x3E3 SWAP2 SWAP1 PUSH2 0x5A8 JUMP JUMPDEST SWAP3 POP POP DUP2 SWAP1 SSTORE POP POP POP JUMP JUMPDEST PUSH1 0x0 DUP2 CALLDATALOAD SWAP1 POP PUSH2 0x3FD DUP2 PUSH2 0x742 JUMP JUMPDEST SWAP3 SWAP2 POP POP JUMP JUMPDEST PUSH1 0x0 DUP2 CALLDATALOAD SWAP1 POP PUSH2 0x412 DUP2 PUSH2 0x759 JUMP JUMPDEST SWAP3 SWAP2 POP POP JUMP JUMPDEST PUSH1 0x0 PUSH1 0x20 DUP3 DUP5 SUB SLT ISZERO PUSH2 0x42A JUMPI PUSH1 0x0 DUP1 REVERT JUMPDEST PUSH1 0x0 PUSH2 0x438 DUP5 DUP3 DUP6 ADD PUSH2 0x3EE JUMP JUMPDEST SWAP2 POP POP SWAP3 SWAP2 POP POP JUMP JUMPDEST PUSH1 0x0 DUP1 PUSH1 0x40 DUP4 DUP6 SUB SLT ISZERO PUSH2 0x454 JUMPI PUSH1 0x0 DUP1 REVERT JUMPDEST PUSH1 0x0 PUSH2 0x462 DUP6 DUP3 DUP7 ADD PUSH2 0x3EE JUMP JUMPDEST SWAP3 POP POP PUSH1 0x20 PUSH2 0x473 DUP6 DUP3 DUP7 ADD PUSH2 0x403 JUMP JUMPDEST SWAP2 POP POP SWAP3 POP SWAP3 SWAP1 POP JUMP JUMPDEST PUSH2 0x486 DUP2 PUSH2 0x632 JUMP JUMPDEST DUP3 MSTORE POP POP JUMP JUMPDEST PUSH1 0x0 PUSH2 0x497 DUP3 PUSH2 0x58C JUMP JUMPDEST PUSH2 0x4A1 DUP2 DUP6 PUSH2 0x597 JUMP JUMPDEST SWAP4 POP PUSH2 0x4B1 DUP2 DUP6 PUSH1 0x20 DUP7 ADD PUSH2 0x66E JUMP JUMPDEST PUSH2 0x4BA DUP2 PUSH2 0x731 JUMP JUMPDEST DUP5 ADD SWAP2 POP POP SWAP3 SWAP2 POP POP JUMP JUMPDEST PUSH1 0x0 PUSH2 0x4D2 PUSH1 0x10 DUP4 PUSH2 0x597 JUMP JUMPDEST SWAP2 POP PUSH32 0x6E6F7420656E6F75676820746F6B656E00000000000000000000000000000000 PUSH1 0x0 DUP4 ADD MSTORE PUSH1 0x20 DUP3 ADD SWAP1 POP SWAP2 SWAP1 POP JUMP JUMPDEST PUSH2 0x50E DUP2 PUSH2 0x664 JUMP JUMPDEST DUP3 MSTORE POP POP JUMP JUMPDEST PUSH1 0x0 PUSH1 0x20 DUP3 ADD SWAP1 POP PUSH2 0x529 PUSH1 0x0 DUP4 ADD DUP5 PUSH2 0x47D JUMP JUMPDEST SWAP3 SWAP2 POP POP JUMP JUMPDEST PUSH1 0x0 PUSH1 0x20 DUP3 ADD SWAP1 POP DUP2 DUP2 SUB PUSH1 0x0 DUP4 ADD MSTORE PUSH2 0x549 DUP2 DUP5 PUSH2 0x48C JUMP JUMPDEST SWAP1 POP SWAP3 SWAP2 POP POP JUMP JUMPDEST PUSH1 0x0 PUSH1 0x20 DUP3 ADD SWAP1 POP DUP2 DUP2 SUB PUSH1 0x0 DUP4 ADD MSTORE PUSH2 0x56A DUP2 PUSH2 0x4C5 JUMP JUMPDEST SWAP1 POP SWAP2 SWAP1 POP JUMP JUMPDEST PUSH1 0x0 PUSH1 0x20 DUP3 ADD SWAP1 POP PUSH2 0x586 PUSH1 0x0 DUP4 ADD DUP5 PUSH2 0x505 JUMP JUMPDEST SWAP3 SWAP2 POP POP JUMP JUMPDEST PUSH1 0x0 DUP2 MLOAD SWAP1 POP SWAP2 SWAP1 POP JUMP JUMPDEST PUSH1 0x0 DUP3 DUP3 MSTORE PUSH1 0x20 DUP3 ADD SWAP1 POP SWAP3 SWAP2 POP POP JUMP JUMPDEST PUSH1 0x0 PUSH2 0x5B3 DUP3 PUSH2 0x664 JUMP JUMPDEST SWAP2 POP PUSH2 0x5BE DUP4 PUSH2 0x664 JUMP JUMPDEST SWAP3 POP DUP3 PUSH32 0xFFFFFFFFFFFFFFFFFFFFFFFFFFFFFFFFFFFFFFFFFFFFFFFFFFFFFFFFFFFFFFFF SUB DUP3 GT ISZERO PUSH2 0x5F3 JUMPI PUSH2 0x5F2 PUSH2 0x6D3 JUMP JUMPDEST JUMPDEST DUP3 DUP3 ADD SWAP1 POP SWAP3 SWAP2 POP POP JUMP JUMPDEST PUSH1 0x0 PUSH2 0x609 DUP3 PUSH2 0x664 JUMP JUMPDEST SWAP2 POP PUSH2 0x614 DUP4 PUSH2 0x664 JUMP JUMPDEST SWAP3 POP DUP3 DUP3 LT ISZERO PUSH2 0x627 JUMPI PUSH2 0x626 PUSH2 0x6D3 JUMP JUMPDEST JUMPDEST DUP3 DUP3 SUB SWAP1 POP SWAP3 SWAP2 POP POP JUMP JUMPDEST PUSH1 0x0 PUSH2 0x63D DUP3 PUSH2 0x644 JUMP JUMPDEST SWAP1 POP SWAP2 SWAP1 POP JUMP JUMPDEST PUSH1 0x0 PUSH20 0xFFFFFFFFFFFFFFFFFFFFFFFFFFFFFFFFFFFFFFFF DUP3 AND SWAP1 POP SWAP2 SWAP1 POP JUMP JUMPDEST PUSH1 0x0 DUP2 SWAP1 POP SWAP2 SWAP1 POP JUMP JUMPDEST PUSH1 0x0 JUMPDEST DUP4 DUP2 LT ISZERO PUSH2 0x68C JUMPI DUP1 DUP3 ADD MLOAD DUP2 DUP5 ADD MSTORE PUSH1 0x20 DUP2 ADD SWAP1 POP PUSH2 0x671 JUMP JUMPDEST DUP4 DUP2 GT ISZERO PUSH2 0x69B JUMPI PUSH1 0x0 DUP5 DUP5 ADD MSTORE JUMPDEST POP POP POP POP JUMP JUMPDEST PUSH1 0x0 PUSH1 0x2 DUP3 DIV SWAP1 POP PUSH1 0x1 DUP3 AND DUP1 PUSH2 0x6B9 JUMPI PUSH1 0x7F DUP3 AND SWAP2 POP JUMPDEST PUSH1 0x20 DUP3 LT DUP2 EQ ISZERO PUSH2 0x6CD JUMPI PUSH2 0x6CC PUSH2 0x702 JUMP JUMPDEST JUMPDEST POP SWAP2 SWAP1 POP JUMP JUMPDEST PUSH32 0x4E487B7100000000000000000000000000000000000000000000000000000000 PUSH1 0x0 MSTORE PUSH1 0x11 PUSH1 0x4 MSTORE PUSH1 0x24 PUSH1 0x0 REVERT JUMPDEST PUSH32 0x4E487B7100000000000000000000000000000000000000000000000000000000 PUSH1 0x0 MSTORE PUSH1 0x22 PUSH1 0x4 MSTORE PUSH1 0x24 PUSH1 0x0 REVERT JUMPDEST PUSH1 0x0 PUSH1 0x1F NOT PUSH1 0x1F DUP4 ADD AND SWAP1 POP SWAP2 SWAP1 POP JUMP JUMPDEST PUSH2 0x74B DUP2 PUSH2 0x632 JUMP JUMPDEST DUP2 EQ PUSH2 0x756 JUMPI PUSH1 0x0 DUP1 REVERT JUMPDEST POP JUMP JUMPDEST PUSH2 0x762 DUP2 PUSH2 0x664 JUMP JUMPDEST DUP2 EQ PUSH2 0x76D JUMPI PUSH1 0x0 DUP1 REVERT JUMPDEST POP JUMP INVALID LOG2 PUSH5 0x6970667358 0x22 SLT KECCAK256 REVERT SHR PUSH10 0x5CF70DB850F5B87DB99B PUSH10 0x3ED535575F2A6D396A09 0xCC 0xE7 0x48 0xC8 AND 0x2B 0x5C 0xFB PUSH5 0x736F6C6343 STOP ADDMOD STOP STOP CALLER "
				},
				"gasEstimates": {
					"creation": {
						"codeDepositCost": "391600",
						"executionCost": "infinite",
						"totalCost": "infinite"
					},
					"external": {
						"balanceof(address)": "1541",
						"name()": "infinite",
						"owner()": "1258",
						"symbol()": "infinite",
						"totalsupply()": "1151",
						"transfer(address,uint256)": "infinite"
					}
				},
				"methodIdentifiers": {
					"balanceof(address)": "3d64125b",
					"name()": "06fdde03",
					"owner()": "8da5cb5b",
					"symbol()": "95d89b41",
					"totalsupply()": "72dd529b",
					"transfer(address,uint256)": "a9059cbb"
				}
			},
			"storageLayout": {
				"storage": [
					{
						"astId": 4,
						"contract": "erc20 contract/tok.sol:token",
						"label": "name",
						"offset": 0,
						"slot": "0",
						"type": "t_string_storage"
					},
					{
						"astId": 7,
						"contract": "erc20 contract/tok.sol:token",
						"label": "symbol",
						"offset": 0,
						"slot": "1",
						"type": "t_string_storage"
					},
					{
						"astId": 10,
						"contract": "erc20 contract/tok.sol:token",
						"label": "totalsupply",
						"offset": 0,
						"slot": "2",
						"type": "t_uint256"
					},
					{
						"astId": 12,
						"contract": "erc20 contract/tok.sol:token",
						"label": "owner",
						"offset": 0,
						"slot": "3",
						"type": "t_address"
					},
					{
						"astId": 16,
						"contract": "erc20 contract/tok.sol:token",
						"label": "balances",
						"offset": 0,
						"slot": "4",
						"type": "t_mapping(t_address,t_uint256)"
					}
				],
				"types": {
					"t_address": {
						"encoding": "inplace",
						"label": "address",
						"numberOfBytes": "20"
					},
					"t_mapping(t_address,t_uint256)": {
						"encoding": "mapping",
						"key": "t_address",
						"label": "mapping(address => uint256)",
						"numberOfBytes": "32",
						"value": "t_uint256"
					},
					"t_string_storage": {
						"encoding": "bytes",
						"label": "string",
						"numberOfBytes": "32"
					},
					"t_uint256": {
						"encoding": "inplace",
						"label": "uint256",
						"numberOfBytes": "32"
					}
				}
			},
			"userdoc": {
				"kind": "user",
				"methods": {},
				"version": 1
			}
		}
	}
}